{"contracts/Etherdocs.sol":{"Etherdocs":{"abi":[{"inputs":[],"stateMutability":"nonpayable","type":"constructor"},{"inputs":[{"internalType":"string","name":"_uuid","type":"string"}],"name":"getCertificate","outputs":[{"internalType":"string","name":"","type":"string"},{"internalType":"address","name":"","type":"address"},{"internalType":"address","name":"","type":"address"},{"internalType":"string","name":"","type":"string"},{"internalType":"string","name":"","type":"string"},{"internalType":"bool","name":"","type":"bool"}],"stateMutability":"view","type":"function"},{"inputs":[],"name":"getCertificatesIssuedBy","outputs":[{"internalType":"string[]","name":"","type":"string[]"}],"stateMutability":"view","type":"function"},{"inputs":[],"name":"getCertificatesIssuedFor","outputs":[{"internalType":"string[]","name":"","type":"string[]"}],"stateMutability":"view","type":"function"},{"inputs":[],"name":"getIssuedByCount","outputs":[{"internalType":"uint256","name":"","type":"uint256"}],"stateMutability":"view","type":"function"},{"inputs":[],"name":"getIssuedForCount","outputs":[{"internalType":"uint256","name":"","type":"uint256"}],"stateMutability":"view","type":"function"},{"inputs":[],"name":"getProfile","outputs":[{"internalType":"address","name":"","type":"address"},{"internalType":"string","name":"","type":"string"},{"internalType":"string","name":"","type":"string"}],"stateMutability":"view","type":"function"},{"inputs":[{"internalType":"address","name":"_address","type":"address"}],"name":"getProfileByAddress","outputs":[{"internalType":"address","name":"","type":"address"},{"internalType":"string","name":"","type":"string"},{"internalType":"string","name":"","type":"string"}],"stateMutability":"view","type":"function"},{"inputs":[{"internalType":"string","name":"_uuid","type":"string"}],"name":"invalidateCertificate","outputs":[],"stateMutability":"nonpayable","type":"function"},{"inputs":[],"name":"isIssuer","outputs":[{"internalType":"bool","name":"","type":"bool"}],"stateMutability":"view","type":"function"},{"inputs":[],"name":"isRegistered","outputs":[{"internalType":"bool","name":"","type":"bool"}],"stateMutability":"view","type":"function"},{"inputs":[],"name":"isUser","outputs":[{"internalType":"bool","name":"","type":"bool"}],"stateMutability":"view","type":"function"},{"inputs":[{"internalType":"string","name":"_name","type":"string"},{"internalType":"address","name":"_userAddr","type":"address"},{"internalType":"string","name":"_uuid","type":"string"},{"internalType":"string","name":"_hashValue","type":"string"},{"internalType":"string","name":"_ipfsUrl","type":"string"}],"name":"issueCertificate","outputs":[],"stateMutability":"nonpayable","type":"function"},{"inputs":[{"internalType":"string","name":"_name","type":"string"}],"name":"registerIssuer","outputs":[],"stateMutability":"nonpayable","type":"function"},{"inputs":[{"internalType":"string","name":"_name","type":"string"}],"name":"registerUser","outputs":[],"stateMutability":"nonpayable","type":"function"},{"inputs":[{"internalType":"string","name":"_uuid","type":"string"},{"internalType":"address","name":"_issuerAddr","type":"address"},{"internalType":"address","name":"_userAddr","type":"address"},{"internalType":"string","name":"_hashValue","type":"string"}],"name":"verifyCertificate","outputs":[{"internalType":"bool","name":"","type":"bool"}],"stateMutability":"view","type":"function"}],"evm":{"bytecode":{"linkReferences":{},"object":"608060405234801561001057600080fd5b50336000806101000a81548173ffffffffffffffffffffffffffffffffffffffff021916908373ffffffffffffffffffffffffffffffffffffffff1602179055506139ce806100606000396000f3fe608060405234801561001057600080fd5b50600436106100f55760003560e01c80634cd6959c1161009757806386af78fa1161006657806386af78fa14610262578063cfa026da14610280578063d6afc9b11461029e578063ed0f2e75146102be576100f5565b80634cd6959c146101dc5780635b1146bd1461020e5780636f4581dc1461022a578063704f1b9414610246576100f5565b806322366844116100d3578063223668441461016657806324f349f914610184578063455a04ab146101a05780634c22c119146101be576100f5565b806306982546146100fa5780630a660bc01461012a5780630ae380ed14610148575b600080fd5b610114600480360381019061010f9190612b76565b6102f3565b6040516101219190612c30565b60405180910390f35b6101326104bb565b60405161013f9190612c64565b60405180910390f35b6101506104cb565b60405161015d9190612c64565b60405180910390f35b61016e6104db565b60405161017b9190612c30565b60405180910390f35b61019e60048036038101906101999190612c7f565b6104f0565b005b6101a861061d565b6040516101b59190612e09565b60405180910390f35b6101c661062d565b6040516101d39190612c30565b60405180910390f35b6101f660048036038101906101f19190612e2b565b610642565b60405161020593929190612eb1565b60405180910390f35b61022860048036038101906102239190612ef6565b610a6c565b005b610244600480360381019061023f9190612c7f565b610cec565b005b610260600480360381019061025b9190612c7f565b610eb5565b005b61026a61107e565b6040516102779190612c30565b60405180910390f35b610288611093565b6040516102959190612e09565b60405180910390f35b6102a66110a3565b6040516102b593929190612eb1565b60405180910390f35b6102d860048036038101906102d39190612c7f565b6114cb565b6040516102ea96959493929190612fe1565b60405180910390f35b6000806005866040516103069190613093565b908152602001604051809103902090508060060160019054906101000a900460ff16158061034357508060060160009054906101000a900460ff16155b156103525760009150506104b3565b8473ffffffffffffffffffffffffffffffffffffffff168160010160009054906101000a900473ffffffffffffffffffffffffffffffffffffffff1673ffffffffffffffffffffffffffffffffffffffff1614801561040057508373ffffffffffffffffffffffffffffffffffffffff168160020160009054906101000a900473ffffffffffffffffffffffffffffffffffffffff1673ffffffffffffffffffffffffffffffffffffffff16145b801561049e575061049d816004018054610419906130d9565b80601f0160208091040260200160405190810160405280929190818152602001828054610445906130d9565b80156104925780601f1061046757610100808354040283529160200191610492565b820191906000526020600020905b81548152906001019060200180831161047557829003601f168201915b505050505084611718565b5b156104ad5760019150506104b3565b60009150505b949350505050565b60006104c633611771565b905090565b60006104d633611b61565b905090565b6000803390506104ea81611f51565b91505090565b60006005826040516105029190613093565b90815260200160405180910390209050600115158160060160009054906101000a900460ff1615151461056a576040517f08c379a000000000000000000000000000000000000000000000000000000000815260040161056190613156565b60405180910390fd5b8060010160009054906101000a900473ffffffffffffffffffffffffffffffffffffffff1673ffffffffffffffffffffffffffffffffffffffff163373ffffffffffffffffffffffffffffffffffffffff16146105fc576040517f08c379a00000000000000000000000000000000000000000000000000000000081526004016105f3906131e8565b60405180910390fd5b60008160060160016101000a81548160ff0219169083151502179055505050565b606061062833612022565b905090565b60008033905061063c81612492565b91505090565b6000606080600084905061065581611f51565b6106d257806040518060400160405280600281526020017f4e410000000000000000000000000000000000000000000000000000000000008152506040518060400160405280600281526020017f4e4100000000000000000000000000000000000000000000000000000000000081525093509350935050610a65565b6106db81612492565b1561087e576000600360008373ffffffffffffffffffffffffffffffffffffffff1673ffffffffffffffffffffffffffffffffffffffff16815260200190815260200160002060405180606001604052908160008201805461073c906130d9565b80601f0160208091040260200160405190810160405280929190818152602001828054610768906130d9565b80156107b55780601f1061078a576101008083540402835291602001916107b5565b820191906000526020600020905b81548152906001019060200180831161079857829003601f168201915b505050505081526020016001820160009054906101000a900473ffffffffffffffffffffffffffffffffffffffff1673ffffffffffffffffffffffffffffffffffffffff1673ffffffffffffffffffffffffffffffffffffffff1681526020016001820160149054906101000a900460ff1615151515815250509050806020015181600001516040518060400160405280600481526020017f55736572000000000000000000000000000000000000000000000000000000008152509450945094505050610a65565b610887816124f0565b15610a2a576000600160008373ffffffffffffffffffffffffffffffffffffffff1673ffffffffffffffffffffffffffffffffffffffff1681526020019081526020016000206040518060600160405290816000820180546108e8906130d9565b80601f0160208091040260200160405190810160405280929190818152602001828054610914906130d9565b80156109615780601f1061093657610100808354040283529160200191610961565b820191906000526020600020905b81548152906001019060200180831161094457829003601f168201915b505050505081526020016001820160009054906101000a900473ffffffffffffffffffffffffffffffffffffffff1673ffffffffffffffffffffffffffffffffffffffff1673ffffffffffffffffffffffffffffffffffffffff1681526020016001820160149054906101000a900460ff1615151515815250509050806020015181600001516040518060400160405280600681526020017f49737375657200000000000000000000000000000000000000000000000000008152509450945094505050610a65565b6040517f08c379a0000000000000000000000000000000000000000000000000000000008152600401610a5c90613254565b60405180910390fd5b9193909250565b60011515610a79336124f0565b151514610abb576040517f08c379a0000000000000000000000000000000000000000000000000000000008152600401610ab2906132e6565b60405180910390fd5b60011515610ac885612492565b151514610b0a576040517f08c379a0000000000000000000000000000000000000000000000000000000008152600401610b0190613378565b60405180910390fd5b60001515600584604051610b1e9190613093565b908152602001604051809103902060060160009054906101000a900460ff16151514610b7f576040517f08c379a0000000000000000000000000000000000000000000000000000000008152600401610b769061340a565b60405180910390fd5b60003390506000600585604051610b969190613093565b9081526020016040518091039020905060018160060160006101000a81548160ff02191690831515021790555086816000019081610bd491906135d6565b50818160010160006101000a81548173ffffffffffffffffffffffffffffffffffffffff021916908373ffffffffffffffffffffffffffffffffffffffff160217905550858160020160006101000a81548173ffffffffffffffffffffffffffffffffffffffff021916908373ffffffffffffffffffffffffffffffffffffffff16021790555084816003019081610c6c91906135d6565b5083816004019081610c7e91906135d6565b5082816005019081610c9091906135d6565b5060018160060160016101000a81548160ff021916908315150217905550600685908060018154018082558091505060019003906000526020600020016000909190919091509081610ce291906135d6565b5050505050505050565b60003390506000600160008373ffffffffffffffffffffffffffffffffffffffff1673ffffffffffffffffffffffffffffffffffffffff1681526020019081526020016000209050600015158160010160149054906101000a900460ff16151514610d8c576040517f08c379a0000000000000000000000000000000000000000000000000000000008152600401610d83906136f4565b60405180910390fd5b60001515610d9983612492565b151514610ddb576040517f08c379a0000000000000000000000000000000000000000000000000000000008152600401610dd290613760565b60405180910390fd5b818160010160006101000a81548173ffffffffffffffffffffffffffffffffffffffff021916908373ffffffffffffffffffffffffffffffffffffffff16021790555060018160010160146101000a81548160ff02191690831515021790555082816000019081610e4c91906135d6565b506002829080600181540180825580915050600190039060005260206000200160009091909190916101000a81548173ffffffffffffffffffffffffffffffffffffffff021916908373ffffffffffffffffffffffffffffffffffffffff160217905550505050565b60003390506000600360008373ffffffffffffffffffffffffffffffffffffffff1673ffffffffffffffffffffffffffffffffffffffff1681526020019081526020016000209050600015158160010160149054906101000a900460ff16151514610f55576040517f08c379a0000000000000000000000000000000000000000000000000000000008152600401610f4c906137cc565b60405180910390fd5b60001515610f62836124f0565b151514610fa4576040517f08c379a0000000000000000000000000000000000000000000000000000000008152600401610f9b90613838565b60405180910390fd5b818160010160006101000a81548173ffffffffffffffffffffffffffffffffffffffff021916908373ffffffffffffffffffffffffffffffffffffffff16021790555060018160010160146101000a81548160ff0219169083151502179055508281600001908161101591906135d6565b506004829080600181540180825580915050600190039060005260206000200160009091909190916101000a81548173ffffffffffffffffffffffffffffffffffffffff021916908373ffffffffffffffffffffffffffffffffffffffff160217905550505050565b60008033905061108d816124f0565b91505090565b606061109e3361254e565b905090565b600060608060003390506110b681611f51565b61113357806040518060400160405280600281526020017f4e410000000000000000000000000000000000000000000000000000000000008152506040518060400160405280600281526020017f4e41000000000000000000000000000000000000000000000000000000000000815250935093509350506114c6565b61113c81612492565b156112df576000600360008373ffffffffffffffffffffffffffffffffffffffff1673ffffffffffffffffffffffffffffffffffffffff16815260200190815260200160002060405180606001604052908160008201805461119d906130d9565b80601f01602080910402602001604051908101604052809291908181526020018280546111c9906130d9565b80156112165780601f106111eb57610100808354040283529160200191611216565b820191906000526020600020905b8154815290600101906020018083116111f957829003601f168201915b505050505081526020016001820160009054906101000a900473ffffffffffffffffffffffffffffffffffffffff1673ffffffffffffffffffffffffffffffffffffffff1673ffffffffffffffffffffffffffffffffffffffff1681526020016001820160149054906101000a900460ff1615151515815250509050806020015181600001516040518060400160405280600481526020017f557365720000000000000000000000000000000000000000000000000000000081525094509450945050506114c6565b6112e8816124f0565b1561148b576000600160008373ffffffffffffffffffffffffffffffffffffffff1673ffffffffffffffffffffffffffffffffffffffff168152602001908152602001600020604051806060016040529081600082018054611349906130d9565b80601f0160208091040260200160405190810160405280929190818152602001828054611375906130d9565b80156113c25780601f10611397576101008083540402835291602001916113c2565b820191906000526020600020905b8154815290600101906020018083116113a557829003601f168201915b505050505081526020016001820160009054906101000a900473ffffffffffffffffffffffffffffffffffffffff1673ffffffffffffffffffffffffffffffffffffffff1673ffffffffffffffffffffffffffffffffffffffff1681526020016001820160149054906101000a900460ff1615151515815250509050806020015181600001516040518060400160405280600681526020017f497373756572000000000000000000000000000000000000000000000000000081525094509450945050506114c6565b6040517f08c379a00000000000000000000000000000000000000000000000000000000081526004016114bd90613254565b60405180910390fd5b909192565b60606000806060806000806005886040516114e69190613093565b90815260200160405180910390209050806000018160010160009054906101000a900473ffffffffffffffffffffffffffffffffffffffff168260020160009054906101000a900473ffffffffffffffffffffffffffffffffffffffff1683600301846005018560060160019054906101000a900460ff1685805461156a906130d9565b80601f0160208091040260200160405190810160405280929190818152602001828054611596906130d9565b80156115e35780601f106115b8576101008083540402835291602001916115e3565b820191906000526020600020905b8154815290600101906020018083116115c657829003601f168201915b505050505095508280546115f6906130d9565b80601f0160208091040260200160405190810160405280929190818152602001828054611622906130d9565b801561166f5780601f106116445761010080835404028352916020019161166f565b820191906000526020600020905b81548152906001019060200180831161165257829003601f168201915b50505050509250818054611682906130d9565b80601f01602080910402602001604051908101604052809291908181526020018280546116ae906130d9565b80156116fb5780601f106116d0576101008083540402835291602001916116fb565b820191906000526020600020905b8154815290600101906020018083116116de57829003601f168201915b505050505091509650965096509650965096505091939550919395565b60008160405160200161172b9190613093565b60405160208183030381529060405280519060200120836040516020016117529190613093565b6040516020818303038152906040528051906020012014905092915050565b6000806000905060005b600680549050811015611b575760006005600683815481106117a05761179f613858565b5b906000526020600020016040516117b7919061390a565b9081526020016040518091039020604051806101000160405290816000820180546117e1906130d9565b80601f016020809104026020016040519081016040528092919081815260200182805461180d906130d9565b801561185a5780601f1061182f5761010080835404028352916020019161185a565b820191906000526020600020905b81548152906001019060200180831161183d57829003601f168201915b505050505081526020016001820160009054906101000a900473ffffffffffffffffffffffffffffffffffffffff1673ffffffffffffffffffffffffffffffffffffffff1673ffffffffffffffffffffffffffffffffffffffff1681526020016002820160009054906101000a900473ffffffffffffffffffffffffffffffffffffffff1673ffffffffffffffffffffffffffffffffffffffff1673ffffffffffffffffffffffffffffffffffffffff16815260200160038201805461191f906130d9565b80601f016020809104026020016040519081016040528092919081815260200182805461194b906130d9565b80156119985780601f1061196d57610100808354040283529160200191611998565b820191906000526020600020905b81548152906001019060200180831161197b57829003601f168201915b505050505081526020016004820180546119b1906130d9565b80601f01602080910402602001604051908101604052809291908181526020018280546119dd906130d9565b8015611a2a5780601f106119ff57610100808354040283529160200191611a2a565b820191906000526020600020905b815481529060010190602001808311611a0d57829003601f168201915b50505050508152602001600582018054611a43906130d9565b80601f0160208091040260200160405190810160405280929190818152602001828054611a6f906130d9565b8015611abc5780601f10611a9157610100808354040283529160200191611abc565b820191906000526020600020905b815481529060010190602001808311611a9f57829003601f168201915b505050505081526020016006820160009054906101000a900460ff161515151581526020016006820160019054906101000a900460ff16151515158152505090508473ffffffffffffffffffffffffffffffffffffffff16816020015173ffffffffffffffffffffffffffffffffffffffff1603611b43578280611b3f90613950565b9350505b508080611b4f90613950565b91505061177b565b5080915050919050565b6000806000905060005b600680549050811015611f47576000600560068381548110611b9057611b8f613858565b5b90600052602060002001604051611ba7919061390a565b908152602001604051809103902060405180610100016040529081600082018054611bd1906130d9565b80601f0160208091040260200160405190810160405280929190818152602001828054611bfd906130d9565b8015611c4a5780601f10611c1f57610100808354040283529160200191611c4a565b820191906000526020600020905b815481529060010190602001808311611c2d57829003601f168201915b505050505081526020016001820160009054906101000a900473ffffffffffffffffffffffffffffffffffffffff1673ffffffffffffffffffffffffffffffffffffffff1673ffffffffffffffffffffffffffffffffffffffff1681526020016002820160009054906101000a900473ffffffffffffffffffffffffffffffffffffffff1673ffffffffffffffffffffffffffffffffffffffff1673ffffffffffffffffffffffffffffffffffffffff168152602001600382018054611d0f906130d9565b80601f0160208091040260200160405190810160405280929190818152602001828054611d3b906130d9565b8015611d885780601f10611d5d57610100808354040283529160200191611d88565b820191906000526020600020905b815481529060010190602001808311611d6b57829003601f168201915b50505050508152602001600482018054611da1906130d9565b80601f0160208091040260200160405190810160405280929190818152602001828054611dcd906130d9565b8015611e1a5780601f10611def57610100808354040283529160200191611e1a565b820191906000526020600020905b815481529060010190602001808311611dfd57829003601f168201915b50505050508152602001600582018054611e33906130d9565b80601f0160208091040260200160405190810160405280929190818152602001828054611e5f906130d9565b8015611eac5780601f10611e8157610100808354040283529160200191611eac565b820191906000526020600020905b815481529060010190602001808311611e8f57829003601f168201915b505050505081526020016006820160009054906101000a900460ff161515151581526020016006820160019054906101000a900460ff16151515158152505090508473ffffffffffffffffffffffffffffffffffffffff16816040015173ffffffffffffffffffffffffffffffffffffffff1603611f33578280611f2f90613950565b9350505b508080611f3f90613950565b915050611b6b565b5080915050919050565b600080600360008473ffffffffffffffffffffffffffffffffffffffff1673ffffffffffffffffffffffffffffffffffffffff16815260200190815260200160002060010160149054906101000a900460ff1690506000600160008573ffffffffffffffffffffffffffffffffffffffff1673ffffffffffffffffffffffffffffffffffffffff16815260200190815260200160002060010160149054906101000a900460ff16905081158015612006575080155b156120165760009250505061201d565b6001925050505b919050565b6060600061202f83611771565b905060008167ffffffffffffffff81111561204d5761204c6129ed565b5b60405190808252806020026020018201604052801561208057816020015b606081526020019060019003908161206b5790505b5090506000805b6006805490508110156124865760006005600683815481106120ac576120ab613858565b5b906000526020600020016040516120c3919061390a565b9081526020016040518091039020604051806101000160405290816000820180546120ed906130d9565b80601f0160208091040260200160405190810160405280929190818152602001828054612119906130d9565b80156121665780601f1061213b57610100808354040283529160200191612166565b820191906000526020600020905b81548152906001019060200180831161214957829003601f168201915b505050505081526020016001820160009054906101000a900473ffffffffffffffffffffffffffffffffffffffff1673ffffffffffffffffffffffffffffffffffffffff1673ffffffffffffffffffffffffffffffffffffffff1681526020016002820160009054906101000a900473ffffffffffffffffffffffffffffffffffffffff1673ffffffffffffffffffffffffffffffffffffffff1673ffffffffffffffffffffffffffffffffffffffff16815260200160038201805461222b906130d9565b80601f0160208091040260200160405190810160405280929190818152602001828054612257906130d9565b80156122a45780601f10612279576101008083540402835291602001916122a4565b820191906000526020600020905b81548152906001019060200180831161228757829003601f168201915b505050505081526020016004820180546122bd906130d9565b80601f01602080910402602001604051908101604052809291908181526020018280546122e9906130d9565b80156123365780601f1061230b57610100808354040283529160200191612336565b820191906000526020600020905b81548152906001019060200180831161231957829003601f168201915b5050505050815260200160058201805461234f906130d9565b80601f016020809104026020016040519081016040528092919081815260200182805461237b906130d9565b80156123c85780601f1061239d576101008083540402835291602001916123c8565b820191906000526020600020905b8154815290600101906020018083116123ab57829003601f168201915b505050505081526020016006820160009054906101000a900460ff161515151581526020016006820160019054906101000a900460ff16151515158152505090508673ffffffffffffffffffffffffffffffffffffffff16816020015173ffffffffffffffffffffffffffffffffffffffff160361247257806060015184848151811061245857612457613858565b5b6020026020010181905250828061246e90613950565b9350505b50808061247e90613950565b915050612087565b50819350505050919050565b600080600360008473ffffffffffffffffffffffffffffffffffffffff1673ffffffffffffffffffffffffffffffffffffffff16815260200190815260200160002060010160149054906101000a900460ff16905080915050919050565b600080600160008473ffffffffffffffffffffffffffffffffffffffff1673ffffffffffffffffffffffffffffffffffffffff16815260200190815260200160002060010160149054906101000a900460ff16905080915050919050565b6060600061255b83611b61565b905060008167ffffffffffffffff811115612579576125786129ed565b5b6040519080825280602002602001820160405280156125ac57816020015b60608152602001906001900390816125975790505b5090506000805b6006805490508110156129b25760006005600683815481106125d8576125d7613858565b5b906000526020600020016040516125ef919061390a565b908152602001604051809103902060405180610100016040529081600082018054612619906130d9565b80601f0160208091040260200160405190810160405280929190818152602001828054612645906130d9565b80156126925780601f1061266757610100808354040283529160200191612692565b820191906000526020600020905b81548152906001019060200180831161267557829003601f168201915b505050505081526020016001820160009054906101000a900473ffffffffffffffffffffffffffffffffffffffff1673ffffffffffffffffffffffffffffffffffffffff1673ffffffffffffffffffffffffffffffffffffffff1681526020016002820160009054906101000a900473ffffffffffffffffffffffffffffffffffffffff1673ffffffffffffffffffffffffffffffffffffffff1673ffffffffffffffffffffffffffffffffffffffff168152602001600382018054612757906130d9565b80601f0160208091040260200160405190810160405280929190818152602001828054612783906130d9565b80156127d05780601f106127a5576101008083540402835291602001916127d0565b820191906000526020600020905b8154815290600101906020018083116127b357829003601f168201915b505050505081526020016004820180546127e9906130d9565b80601f0160208091040260200160405190810160405280929190818152602001828054612815906130d9565b80156128625780601f1061283757610100808354040283529160200191612862565b820191906000526020600020905b81548152906001019060200180831161284557829003601f168201915b5050505050815260200160058201805461287b906130d9565b80601f01602080910402602001604051908101604052809291908181526020018280546128a7906130d9565b80156128f45780601f106128c9576101008083540402835291602001916128f4565b820191906000526020600020905b8154815290600101906020018083116128d757829003601f168201915b505050505081526020016006820160009054906101000a900460ff161515151581526020016006820160019054906101000a900460ff16151515158152505090508673ffffffffffffffffffffffffffffffffffffffff16816040015173ffffffffffffffffffffffffffffffffffffffff160361299e57806060015184848151811061298457612983613858565b5b6020026020010181905250828061299a90613950565b9350505b5080806129aa90613950565b9150506125b3565b50819350505050919050565b6000604051905090565b600080fd5b600080fd5b600080fd5b600080fd5b6000601f19601f8301169050919050565b7f4e487b7100000000000000000000000000000000000000000000000000000000600052604160045260246000fd5b612a25826129dc565b810181811067ffffffffffffffff82111715612a4457612a436129ed565b5b80604052505050565b6000612a576129be565b9050612a638282612a1c565b919050565b600067ffffffffffffffff821115612a8357612a826129ed565b5b612a8c826129dc565b9050602081019050919050565b82818337600083830152505050565b6000612abb612ab684612a68565b612a4d565b905082815260208101848484011115612ad757612ad66129d7565b5b612ae2848285612a99565b509392505050565b600082601f830112612aff57612afe6129d2565b5b8135612b0f848260208601612aa8565b91505092915050565b600073ffffffffffffffffffffffffffffffffffffffff82169050919050565b6000612b4382612b18565b9050919050565b612b5381612b38565b8114612b5e57600080fd5b50565b600081359050612b7081612b4a565b92915050565b60008060008060808587031215612b9057612b8f6129c8565b5b600085013567ffffffffffffffff811115612bae57612bad6129cd565b5b612bba87828801612aea565b9450506020612bcb87828801612b61565b9350506040612bdc87828801612b61565b925050606085013567ffffffffffffffff811115612bfd57612bfc6129cd565b5b612c0987828801612aea565b91505092959194509250565b60008115159050919050565b612c2a81612c15565b82525050565b6000602082019050612c456000830184612c21565b92915050565b6000819050919050565b612c5e81612c4b565b82525050565b6000602082019050612c796000830184612c55565b92915050565b600060208284031215612c9557612c946129c8565b5b600082013567ffffffffffffffff811115612cb357612cb26129cd565b5b612cbf84828501612aea565b91505092915050565b600081519050919050565b600082825260208201905092915050565b6000819050602082019050919050565b600081519050919050565b600082825260208201905092915050565b60005b83811015612d2e578082015181840152602081019050612d13565b60008484015250505050565b6000612d4582612cf4565b612d4f8185612cff565b9350612d5f818560208601612d10565b612d68816129dc565b840191505092915050565b6000612d7f8383612d3a565b905092915050565b6000602082019050919050565b6000612d9f82612cc8565b612da98185612cd3565b935083602082028501612dbb85612ce4565b8060005b85811015612df75784840389528151612dd88582612d73565b9450612de383612d87565b925060208a01995050600181019050612dbf565b50829750879550505050505092915050565b60006020820190508181036000830152612e238184612d94565b905092915050565b600060208284031215612e4157612e406129c8565b5b6000612e4f84828501612b61565b91505092915050565b612e6181612b38565b82525050565b600082825260208201905092915050565b6000612e8382612cf4565b612e8d8185612e67565b9350612e9d818560208601612d10565b612ea6816129dc565b840191505092915050565b6000606082019050612ec66000830186612e58565b8181036020830152612ed88185612e78565b90508181036040830152612eec8184612e78565b9050949350505050565b600080600080600060a08688031215612f1257612f116129c8565b5b600086013567ffffffffffffffff811115612f3057612f2f6129cd565b5b612f3c88828901612aea565b9550506020612f4d88828901612b61565b945050604086013567ffffffffffffffff811115612f6e57612f6d6129cd565b5b612f7a88828901612aea565b935050606086013567ffffffffffffffff811115612f9b57612f9a6129cd565b5b612fa788828901612aea565b925050608086013567ffffffffffffffff811115612fc857612fc76129cd565b5b612fd488828901612aea565b9150509295509295909350565b600060c0820190508181036000830152612ffb8189612e78565b905061300a6020830188612e58565b6130176040830187612e58565b81810360608301526130298186612e78565b9050818103608083015261303d8185612e78565b905061304c60a0830184612c21565b979650505050505050565b600081905092915050565b600061306d82612cf4565b6130778185613057565b9350613087818560208601612d10565b80840191505092915050565b600061309f8284613062565b915081905092915050565b7f4e487b7100000000000000000000000000000000000000000000000000000000600052602260045260246000fd5b600060028204905060018216806130f157607f821691505b602082108103613104576131036130aa565b5b50919050565b7f696e76616c696465206365727469666963617465207575696400000000000000600082015250565b6000613140601983612e67565b915061314b8261310a565b602082019050919050565b6000602082019050818103600083015261316f81613133565b9050919050565b7f6f6e6c79206973737565722063616e20696e76616c696461746520636572746960008201527f6669636174650000000000000000000000000000000000000000000000000000602082015250565b60006131d2602683612e67565b91506131dd82613176565b604082019050919050565b60006020820190508181036000830152613201816131c5565b9050919050565b7f696e76616c696420726f6c650000000000000000000000000000000000000000600082015250565b600061323e600c83612e67565b915061324982613208565b602082019050919050565b6000602082019050818103600083015261326d81613231565b9050919050565b7f6f6e6c79206973737565722063616e206973737565206365727469666963617460008201527f6573000000000000000000000000000000000000000000000000000000000000602082015250565b60006132d0602283612e67565b91506132db82613274565b604082019050919050565b600060208201905081810360008301526132ff816132c3565b9050919050565b7f63657274696669636174652063616e2062652069737375656420746f2075736560008201527f7273206f6e6c7900000000000000000000000000000000000000000000000000602082015250565b6000613362602783612e67565b915061336d82613306565b604082019050919050565b6000602082019050818103600083015261339181613355565b9050919050565b7f636572746966696361746520776974682073616d65207575696420616c72656160008201527f6479207265676973746572656400000000000000000000000000000000000000602082015250565b60006133f4602d83612e67565b91506133ff82613398565b604082019050919050565b60006020820190508181036000830152613423816133e7565b9050919050565b60008190508160005260206000209050919050565b60006020601f8301049050919050565b600082821b905092915050565b60006008830261348c7fffffffffffffffffffffffffffffffffffffffffffffffffffffffffffffffff8261344f565b613496868361344f565b95508019841693508086168417925050509392505050565b6000819050919050565b60006134d36134ce6134c984612c4b565b6134ae565b612c4b565b9050919050565b6000819050919050565b6134ed836134b8565b6135016134f9826134da565b84845461345c565b825550505050565b600090565b613516613509565b6135218184846134e4565b505050565b5b818110156135455761353a60008261350e565b600181019050613527565b5050565b601f82111561358a5761355b8161342a565b6135648461343f565b81016020851015613573578190505b61358761357f8561343f565b830182613526565b50505b505050565b600082821c905092915050565b60006135ad6000198460080261358f565b1980831691505092915050565b60006135c6838361359c565b9150826002028217905092915050565b6135df82612cf4565b67ffffffffffffffff8111156135f8576135f76129ed565b5b61360282546130d9565b61360d828285613549565b600060209050601f831160018114613640576000841561362e578287015190505b61363885826135ba565b8655506136a0565b601f19841661364e8661342a565b60005b8281101561367657848901518255600182019150602085019450602081019050613651565b86831015613693578489015161368f601f89168261359c565b8355505b6001600288020188555050505b505050505050565b7f69737375657220616c7265616479207265676973746572656400000000000000600082015250565b60006136de601983612e67565b91506136e9826136a8565b602082019050919050565b6000602082019050818103600083015261370d816136d1565b9050919050565b7f616c726561647920726567697374657265642061732075736572000000000000600082015250565b600061374a601a83612e67565b915061375582613714565b602082019050919050565b600060208201905081810360008301526137798161373d565b9050919050565b7f7573657220616c72656164792072656769737465726564000000000000000000600082015250565b60006137b6601783612e67565b91506137c182613780565b602082019050919050565b600060208201905081810360008301526137e5816137a9565b9050919050565b7f616c726561647920726567697374657265642061732069737375657200000000600082015250565b6000613822601c83612e67565b915061382d826137ec565b602082019050919050565b6000602082019050818103600083015261385181613815565b9050919050565b7f4e487b7100000000000000000000000000000000000000000000000000000000600052603260045260246000fd5b60008154613894816130d9565b61389e8186613057565b945060018216600081146138b957600181146138ce57613901565b60ff1983168652811515820286019350613901565b6138d78561342a565b60005b838110156138f9578154818901526001820191506020810190506138da565b838801955050505b50505092915050565b60006139168284613887565b915081905092915050565b7f4e487b7100000000000000000000000000000000000000000000000000000000600052601160045260246000fd5b600061395b82612c4b565b91507fffffffffffffffffffffffffffffffffffffffffffffffffffffffffffffffff820361398d5761398c613921565b5b60018201905091905056fea2646970667358221220caf30f875997ce33d028ccecf69c75fca265d7b18987f7705a2d7e8ec682aba964736f6c63430008110033","opcodes":"PUSH1 0x80 PUSH1 0x40 MSTORE CALLVALUE DUP1 ISZERO PUSH2 0x10 JUMPI PUSH1 0x0 DUP1 REVERT JUMPDEST POP CALLER PUSH1 0x0 DUP1 PUSH2 0x100 EXP DUP2 SLOAD DUP2 PUSH20 0xFFFFFFFFFFFFFFFFFFFFFFFFFFFFFFFFFFFFFFFF MUL NOT AND SWAP1 DUP4 PUSH20 0xFFFFFFFFFFFFFFFFFFFFFFFFFFFFFFFFFFFFFFFF AND MUL OR SWAP1 SSTORE POP PUSH2 0x39CE DUP1 PUSH2 0x60 PUSH1 0x0 CODECOPY PUSH1 0x0 RETURN INVALID PUSH1 0x80 PUSH1 0x40 MSTORE CALLVALUE DUP1 ISZERO PUSH2 0x10 JUMPI PUSH1 0x0 DUP1 REVERT JUMPDEST POP PUSH1 0x4 CALLDATASIZE LT PUSH2 0xF5 JUMPI PUSH1 0x0 CALLDATALOAD PUSH1 0xE0 SHR DUP1 PUSH4 0x4CD6959C GT PUSH2 0x97 JUMPI DUP1 PUSH4 0x86AF78FA GT PUSH2 0x66 JUMPI DUP1 PUSH4 0x86AF78FA EQ PUSH2 0x262 JUMPI DUP1 PUSH4 0xCFA026DA EQ PUSH2 0x280 JUMPI DUP1 PUSH4 0xD6AFC9B1 EQ PUSH2 0x29E JUMPI DUP1 PUSH4 0xED0F2E75 EQ PUSH2 0x2BE JUMPI PUSH2 0xF5 JUMP JUMPDEST DUP1 PUSH4 0x4CD6959C EQ PUSH2 0x1DC JUMPI DUP1 PUSH4 0x5B1146BD EQ PUSH2 0x20E JUMPI DUP1 PUSH4 0x6F4581DC EQ PUSH2 0x22A JUMPI DUP1 PUSH4 0x704F1B94 EQ PUSH2 0x246 JUMPI PUSH2 0xF5 JUMP JUMPDEST DUP1 PUSH4 0x22366844 GT PUSH2 0xD3 JUMPI DUP1 PUSH4 0x22366844 EQ PUSH2 0x166 JUMPI DUP1 PUSH4 0x24F349F9 EQ PUSH2 0x184 JUMPI DUP1 PUSH4 0x455A04AB EQ PUSH2 0x1A0 JUMPI DUP1 PUSH4 0x4C22C119 EQ PUSH2 0x1BE JUMPI PUSH2 0xF5 JUMP JUMPDEST DUP1 PUSH4 0x6982546 EQ PUSH2 0xFA JUMPI DUP1 PUSH4 0xA660BC0 EQ PUSH2 0x12A JUMPI DUP1 PUSH4 0xAE380ED EQ PUSH2 0x148 JUMPI JUMPDEST PUSH1 0x0 DUP1 REVERT JUMPDEST PUSH2 0x114 PUSH1 0x4 DUP1 CALLDATASIZE SUB DUP2 ADD SWAP1 PUSH2 0x10F SWAP2 SWAP1 PUSH2 0x2B76 JUMP JUMPDEST PUSH2 0x2F3 JUMP JUMPDEST PUSH1 0x40 MLOAD PUSH2 0x121 SWAP2 SWAP1 PUSH2 0x2C30 JUMP JUMPDEST PUSH1 0x40 MLOAD DUP1 SWAP2 SUB SWAP1 RETURN JUMPDEST PUSH2 0x132 PUSH2 0x4BB JUMP JUMPDEST PUSH1 0x40 MLOAD PUSH2 0x13F SWAP2 SWAP1 PUSH2 0x2C64 JUMP JUMPDEST PUSH1 0x40 MLOAD DUP1 SWAP2 SUB SWAP1 RETURN JUMPDEST PUSH2 0x150 PUSH2 0x4CB JUMP JUMPDEST PUSH1 0x40 MLOAD PUSH2 0x15D SWAP2 SWAP1 PUSH2 0x2C64 JUMP JUMPDEST PUSH1 0x40 MLOAD DUP1 SWAP2 SUB SWAP1 RETURN JUMPDEST PUSH2 0x16E PUSH2 0x4DB JUMP JUMPDEST PUSH1 0x40 MLOAD PUSH2 0x17B SWAP2 SWAP1 PUSH2 0x2C30 JUMP JUMPDEST PUSH1 0x40 MLOAD DUP1 SWAP2 SUB SWAP1 RETURN JUMPDEST PUSH2 0x19E PUSH1 0x4 DUP1 CALLDATASIZE SUB DUP2 ADD SWAP1 PUSH2 0x199 SWAP2 SWAP1 PUSH2 0x2C7F JUMP JUMPDEST PUSH2 0x4F0 JUMP JUMPDEST STOP JUMPDEST PUSH2 0x1A8 PUSH2 0x61D JUMP JUMPDEST PUSH1 0x40 MLOAD PUSH2 0x1B5 SWAP2 SWAP1 PUSH2 0x2E09 JUMP JUMPDEST PUSH1 0x40 MLOAD DUP1 SWAP2 SUB SWAP1 RETURN JUMPDEST PUSH2 0x1C6 PUSH2 0x62D JUMP JUMPDEST PUSH1 0x40 MLOAD PUSH2 0x1D3 SWAP2 SWAP1 PUSH2 0x2C30 JUMP JUMPDEST PUSH1 0x40 MLOAD DUP1 SWAP2 SUB SWAP1 RETURN JUMPDEST PUSH2 0x1F6 PUSH1 0x4 DUP1 CALLDATASIZE SUB DUP2 ADD SWAP1 PUSH2 0x1F1 SWAP2 SWAP1 PUSH2 0x2E2B JUMP JUMPDEST PUSH2 0x642 JUMP JUMPDEST PUSH1 0x40 MLOAD PUSH2 0x205 SWAP4 SWAP3 SWAP2 SWAP1 PUSH2 0x2EB1 JUMP JUMPDEST PUSH1 0x40 MLOAD DUP1 SWAP2 SUB SWAP1 RETURN JUMPDEST PUSH2 0x228 PUSH1 0x4 DUP1 CALLDATASIZE SUB DUP2 ADD SWAP1 PUSH2 0x223 SWAP2 SWAP1 PUSH2 0x2EF6 JUMP JUMPDEST PUSH2 0xA6C JUMP JUMPDEST STOP JUMPDEST PUSH2 0x244 PUSH1 0x4 DUP1 CALLDATASIZE SUB DUP2 ADD SWAP1 PUSH2 0x23F SWAP2 SWAP1 PUSH2 0x2C7F JUMP JUMPDEST PUSH2 0xCEC JUMP JUMPDEST STOP JUMPDEST PUSH2 0x260 PUSH1 0x4 DUP1 CALLDATASIZE SUB DUP2 ADD SWAP1 PUSH2 0x25B SWAP2 SWAP1 PUSH2 0x2C7F JUMP JUMPDEST PUSH2 0xEB5 JUMP JUMPDEST STOP JUMPDEST PUSH2 0x26A PUSH2 0x107E JUMP JUMPDEST PUSH1 0x40 MLOAD PUSH2 0x277 SWAP2 SWAP1 PUSH2 0x2C30 JUMP JUMPDEST PUSH1 0x40 MLOAD DUP1 SWAP2 SUB SWAP1 RETURN JUMPDEST PUSH2 0x288 PUSH2 0x1093 JUMP JUMPDEST PUSH1 0x40 MLOAD PUSH2 0x295 SWAP2 SWAP1 PUSH2 0x2E09 JUMP JUMPDEST PUSH1 0x40 MLOAD DUP1 SWAP2 SUB SWAP1 RETURN JUMPDEST PUSH2 0x2A6 PUSH2 0x10A3 JUMP JUMPDEST PUSH1 0x40 MLOAD PUSH2 0x2B5 SWAP4 SWAP3 SWAP2 SWAP1 PUSH2 0x2EB1 JUMP JUMPDEST PUSH1 0x40 MLOAD DUP1 SWAP2 SUB SWAP1 RETURN JUMPDEST PUSH2 0x2D8 PUSH1 0x4 DUP1 CALLDATASIZE SUB DUP2 ADD SWAP1 PUSH2 0x2D3 SWAP2 SWAP1 PUSH2 0x2C7F JUMP JUMPDEST PUSH2 0x14CB JUMP JUMPDEST PUSH1 0x40 MLOAD PUSH2 0x2EA SWAP7 SWAP6 SWAP5 SWAP4 SWAP3 SWAP2 SWAP1 PUSH2 0x2FE1 JUMP JUMPDEST PUSH1 0x40 MLOAD DUP1 SWAP2 SUB SWAP1 RETURN JUMPDEST PUSH1 0x0 DUP1 PUSH1 0x5 DUP7 PUSH1 0x40 MLOAD PUSH2 0x306 SWAP2 SWAP1 PUSH2 0x3093 JUMP JUMPDEST SWAP1 DUP2 MSTORE PUSH1 0x20 ADD PUSH1 0x40 MLOAD DUP1 SWAP2 SUB SWAP1 KECCAK256 SWAP1 POP DUP1 PUSH1 0x6 ADD PUSH1 0x1 SWAP1 SLOAD SWAP1 PUSH2 0x100 EXP SWAP1 DIV PUSH1 0xFF AND ISZERO DUP1 PUSH2 0x343 JUMPI POP DUP1 PUSH1 0x6 ADD PUSH1 0x0 SWAP1 SLOAD SWAP1 PUSH2 0x100 EXP SWAP1 DIV PUSH1 0xFF AND ISZERO JUMPDEST ISZERO PUSH2 0x352 JUMPI PUSH1 0x0 SWAP2 POP POP PUSH2 0x4B3 JUMP JUMPDEST DUP5 PUSH20 0xFFFFFFFFFFFFFFFFFFFFFFFFFFFFFFFFFFFFFFFF AND DUP2 PUSH1 0x1 ADD PUSH1 0x0 SWAP1 SLOAD SWAP1 PUSH2 0x100 EXP SWAP1 DIV PUSH20 0xFFFFFFFFFFFFFFFFFFFFFFFFFFFFFFFFFFFFFFFF AND PUSH20 0xFFFFFFFFFFFFFFFFFFFFFFFFFFFFFFFFFFFFFFFF AND EQ DUP1 ISZERO PUSH2 0x400 JUMPI POP DUP4 PUSH20 0xFFFFFFFFFFFFFFFFFFFFFFFFFFFFFFFFFFFFFFFF AND DUP2 PUSH1 0x2 ADD PUSH1 0x0 SWAP1 SLOAD SWAP1 PUSH2 0x100 EXP SWAP1 DIV PUSH20 0xFFFFFFFFFFFFFFFFFFFFFFFFFFFFFFFFFFFFFFFF AND PUSH20 0xFFFFFFFFFFFFFFFFFFFFFFFFFFFFFFFFFFFFFFFF AND EQ JUMPDEST DUP1 ISZERO PUSH2 0x49E JUMPI POP PUSH2 0x49D DUP2 PUSH1 0x4 ADD DUP1 SLOAD PUSH2 0x419 SWAP1 PUSH2 0x30D9 JUMP JUMPDEST DUP1 PUSH1 0x1F ADD PUSH1 0x20 DUP1 SWAP2 DIV MUL PUSH1 0x20 ADD PUSH1 0x40 MLOAD SWAP1 DUP2 ADD PUSH1 0x40 MSTORE DUP1 SWAP3 SWAP2 SWAP1 DUP2 DUP2 MSTORE PUSH1 0x20 ADD DUP3 DUP1 SLOAD PUSH2 0x445 SWAP1 PUSH2 0x30D9 JUMP JUMPDEST DUP1 ISZERO PUSH2 0x492 JUMPI DUP1 PUSH1 0x1F LT PUSH2 0x467 JUMPI PUSH2 0x100 DUP1 DUP4 SLOAD DIV MUL DUP4 MSTORE SWAP2 PUSH1 0x20 ADD SWAP2 PUSH2 0x492 JUMP JUMPDEST DUP3 ADD SWAP2 SWAP1 PUSH1 0x0 MSTORE PUSH1 0x20 PUSH1 0x0 KECCAK256 SWAP1 JUMPDEST DUP2 SLOAD DUP2 MSTORE SWAP1 PUSH1 0x1 ADD SWAP1 PUSH1 0x20 ADD DUP1 DUP4 GT PUSH2 0x475 JUMPI DUP3 SWAP1 SUB PUSH1 0x1F AND DUP3 ADD SWAP2 JUMPDEST POP POP POP POP POP DUP5 PUSH2 0x1718 JUMP JUMPDEST JUMPDEST ISZERO PUSH2 0x4AD JUMPI PUSH1 0x1 SWAP2 POP POP PUSH2 0x4B3 JUMP JUMPDEST PUSH1 0x0 SWAP2 POP POP JUMPDEST SWAP5 SWAP4 POP POP POP POP JUMP JUMPDEST PUSH1 0x0 PUSH2 0x4C6 CALLER PUSH2 0x1771 JUMP JUMPDEST SWAP1 POP SWAP1 JUMP JUMPDEST PUSH1 0x0 PUSH2 0x4D6 CALLER PUSH2 0x1B61 JUMP JUMPDEST SWAP1 POP SWAP1 JUMP JUMPDEST PUSH1 0x0 DUP1 CALLER SWAP1 POP PUSH2 0x4EA DUP2 PUSH2 0x1F51 JUMP JUMPDEST SWAP2 POP POP SWAP1 JUMP JUMPDEST PUSH1 0x0 PUSH1 0x5 DUP3 PUSH1 0x40 MLOAD PUSH2 0x502 SWAP2 SWAP1 PUSH2 0x3093 JUMP JUMPDEST SWAP1 DUP2 MSTORE PUSH1 0x20 ADD PUSH1 0x40 MLOAD DUP1 SWAP2 SUB SWAP1 KECCAK256 SWAP1 POP PUSH1 0x1 ISZERO ISZERO DUP2 PUSH1 0x6 ADD PUSH1 0x0 SWAP1 SLOAD SWAP1 PUSH2 0x100 EXP SWAP1 DIV PUSH1 0xFF AND ISZERO ISZERO EQ PUSH2 0x56A JUMPI PUSH1 0x40 MLOAD PUSH32 0x8C379A000000000000000000000000000000000000000000000000000000000 DUP2 MSTORE PUSH1 0x4 ADD PUSH2 0x561 SWAP1 PUSH2 0x3156 JUMP JUMPDEST PUSH1 0x40 MLOAD DUP1 SWAP2 SUB SWAP1 REVERT JUMPDEST DUP1 PUSH1 0x1 ADD PUSH1 0x0 SWAP1 SLOAD SWAP1 PUSH2 0x100 EXP SWAP1 DIV PUSH20 0xFFFFFFFFFFFFFFFFFFFFFFFFFFFFFFFFFFFFFFFF AND PUSH20 0xFFFFFFFFFFFFFFFFFFFFFFFFFFFFFFFFFFFFFFFF AND CALLER PUSH20 0xFFFFFFFFFFFFFFFFFFFFFFFFFFFFFFFFFFFFFFFF AND EQ PUSH2 0x5FC JUMPI PUSH1 0x40 MLOAD PUSH32 0x8C379A000000000000000000000000000000000000000000000000000000000 DUP2 MSTORE PUSH1 0x4 ADD PUSH2 0x5F3 SWAP1 PUSH2 0x31E8 JUMP JUMPDEST PUSH1 0x40 MLOAD DUP1 SWAP2 SUB SWAP1 REVERT JUMPDEST PUSH1 0x0 DUP2 PUSH1 0x6 ADD PUSH1 0x1 PUSH2 0x100 EXP DUP2 SLOAD DUP2 PUSH1 0xFF MUL NOT AND SWAP1 DUP4 ISZERO ISZERO MUL OR SWAP1 SSTORE POP POP POP JUMP JUMPDEST PUSH1 0x60 PUSH2 0x628 CALLER PUSH2 0x2022 JUMP JUMPDEST SWAP1 POP SWAP1 JUMP JUMPDEST PUSH1 0x0 DUP1 CALLER SWAP1 POP PUSH2 0x63C DUP2 PUSH2 0x2492 JUMP JUMPDEST SWAP2 POP POP SWAP1 JUMP JUMPDEST PUSH1 0x0 PUSH1 0x60 DUP1 PUSH1 0x0 DUP5 SWAP1 POP PUSH2 0x655 DUP2 PUSH2 0x1F51 JUMP JUMPDEST PUSH2 0x6D2 JUMPI DUP1 PUSH1 0x40 MLOAD DUP1 PUSH1 0x40 ADD PUSH1 0x40 MSTORE DUP1 PUSH1 0x2 DUP2 MSTORE PUSH1 0x20 ADD PUSH32 0x4E41000000000000000000000000000000000000000000000000000000000000 DUP2 MSTORE POP PUSH1 0x40 MLOAD DUP1 PUSH1 0x40 ADD PUSH1 0x40 MSTORE DUP1 PUSH1 0x2 DUP2 MSTORE PUSH1 0x20 ADD PUSH32 0x4E41000000000000000000000000000000000000000000000000000000000000 DUP2 MSTORE POP SWAP4 POP SWAP4 POP SWAP4 POP POP PUSH2 0xA65 JUMP JUMPDEST PUSH2 0x6DB DUP2 PUSH2 0x2492 JUMP JUMPDEST ISZERO PUSH2 0x87E JUMPI PUSH1 0x0 PUSH1 0x3 PUSH1 0x0 DUP4 PUSH20 0xFFFFFFFFFFFFFFFFFFFFFFFFFFFFFFFFFFFFFFFF AND PUSH20 0xFFFFFFFFFFFFFFFFFFFFFFFFFFFFFFFFFFFFFFFF AND DUP2 MSTORE PUSH1 0x20 ADD SWAP1 DUP2 MSTORE PUSH1 0x20 ADD PUSH1 0x0 KECCAK256 PUSH1 0x40 MLOAD DUP1 PUSH1 0x60 ADD PUSH1 0x40 MSTORE SWAP1 DUP2 PUSH1 0x0 DUP3 ADD DUP1 SLOAD PUSH2 0x73C SWAP1 PUSH2 0x30D9 JUMP JUMPDEST DUP1 PUSH1 0x1F ADD PUSH1 0x20 DUP1 SWAP2 DIV MUL PUSH1 0x20 ADD PUSH1 0x40 MLOAD SWAP1 DUP2 ADD PUSH1 0x40 MSTORE DUP1 SWAP3 SWAP2 SWAP1 DUP2 DUP2 MSTORE PUSH1 0x20 ADD DUP3 DUP1 SLOAD PUSH2 0x768 SWAP1 PUSH2 0x30D9 JUMP JUMPDEST DUP1 ISZERO PUSH2 0x7B5 JUMPI DUP1 PUSH1 0x1F LT PUSH2 0x78A JUMPI PUSH2 0x100 DUP1 DUP4 SLOAD DIV MUL DUP4 MSTORE SWAP2 PUSH1 0x20 ADD SWAP2 PUSH2 0x7B5 JUMP JUMPDEST DUP3 ADD SWAP2 SWAP1 PUSH1 0x0 MSTORE PUSH1 0x20 PUSH1 0x0 KECCAK256 SWAP1 JUMPDEST DUP2 SLOAD DUP2 MSTORE SWAP1 PUSH1 0x1 ADD SWAP1 PUSH1 0x20 ADD DUP1 DUP4 GT PUSH2 0x798 JUMPI DUP3 SWAP1 SUB PUSH1 0x1F AND DUP3 ADD SWAP2 JUMPDEST POP POP POP POP POP DUP2 MSTORE PUSH1 0x20 ADD PUSH1 0x1 DUP3 ADD PUSH1 0x0 SWAP1 SLOAD SWAP1 PUSH2 0x100 EXP SWAP1 DIV PUSH20 0xFFFFFFFFFFFFFFFFFFFFFFFFFFFFFFFFFFFFFFFF AND PUSH20 0xFFFFFFFFFFFFFFFFFFFFFFFFFFFFFFFFFFFFFFFF AND PUSH20 0xFFFFFFFFFFFFFFFFFFFFFFFFFFFFFFFFFFFFFFFF AND DUP2 MSTORE PUSH1 0x20 ADD PUSH1 0x1 DUP3 ADD PUSH1 0x14 SWAP1 SLOAD SWAP1 PUSH2 0x100 EXP SWAP1 DIV PUSH1 0xFF AND ISZERO ISZERO ISZERO ISZERO DUP2 MSTORE POP POP SWAP1 POP DUP1 PUSH1 0x20 ADD MLOAD DUP2 PUSH1 0x0 ADD MLOAD PUSH1 0x40 MLOAD DUP1 PUSH1 0x40 ADD PUSH1 0x40 MSTORE DUP1 PUSH1 0x4 DUP2 MSTORE PUSH1 0x20 ADD PUSH32 0x5573657200000000000000000000000000000000000000000000000000000000 DUP2 MSTORE POP SWAP5 POP SWAP5 POP SWAP5 POP POP POP PUSH2 0xA65 JUMP JUMPDEST PUSH2 0x887 DUP2 PUSH2 0x24F0 JUMP JUMPDEST ISZERO PUSH2 0xA2A JUMPI PUSH1 0x0 PUSH1 0x1 PUSH1 0x0 DUP4 PUSH20 0xFFFFFFFFFFFFFFFFFFFFFFFFFFFFFFFFFFFFFFFF AND PUSH20 0xFFFFFFFFFFFFFFFFFFFFFFFFFFFFFFFFFFFFFFFF AND DUP2 MSTORE PUSH1 0x20 ADD SWAP1 DUP2 MSTORE PUSH1 0x20 ADD PUSH1 0x0 KECCAK256 PUSH1 0x40 MLOAD DUP1 PUSH1 0x60 ADD PUSH1 0x40 MSTORE SWAP1 DUP2 PUSH1 0x0 DUP3 ADD DUP1 SLOAD PUSH2 0x8E8 SWAP1 PUSH2 0x30D9 JUMP JUMPDEST DUP1 PUSH1 0x1F ADD PUSH1 0x20 DUP1 SWAP2 DIV MUL PUSH1 0x20 ADD PUSH1 0x40 MLOAD SWAP1 DUP2 ADD PUSH1 0x40 MSTORE DUP1 SWAP3 SWAP2 SWAP1 DUP2 DUP2 MSTORE PUSH1 0x20 ADD DUP3 DUP1 SLOAD PUSH2 0x914 SWAP1 PUSH2 0x30D9 JUMP JUMPDEST DUP1 ISZERO PUSH2 0x961 JUMPI DUP1 PUSH1 0x1F LT PUSH2 0x936 JUMPI PUSH2 0x100 DUP1 DUP4 SLOAD DIV MUL DUP4 MSTORE SWAP2 PUSH1 0x20 ADD SWAP2 PUSH2 0x961 JUMP JUMPDEST DUP3 ADD SWAP2 SWAP1 PUSH1 0x0 MSTORE PUSH1 0x20 PUSH1 0x0 KECCAK256 SWAP1 JUMPDEST DUP2 SLOAD DUP2 MSTORE SWAP1 PUSH1 0x1 ADD SWAP1 PUSH1 0x20 ADD DUP1 DUP4 GT PUSH2 0x944 JUMPI DUP3 SWAP1 SUB PUSH1 0x1F AND DUP3 ADD SWAP2 JUMPDEST POP POP POP POP POP DUP2 MSTORE PUSH1 0x20 ADD PUSH1 0x1 DUP3 ADD PUSH1 0x0 SWAP1 SLOAD SWAP1 PUSH2 0x100 EXP SWAP1 DIV PUSH20 0xFFFFFFFFFFFFFFFFFFFFFFFFFFFFFFFFFFFFFFFF AND PUSH20 0xFFFFFFFFFFFFFFFFFFFFFFFFFFFFFFFFFFFFFFFF AND PUSH20 0xFFFFFFFFFFFFFFFFFFFFFFFFFFFFFFFFFFFFFFFF AND DUP2 MSTORE PUSH1 0x20 ADD PUSH1 0x1 DUP3 ADD PUSH1 0x14 SWAP1 SLOAD SWAP1 PUSH2 0x100 EXP SWAP1 DIV PUSH1 0xFF AND ISZERO ISZERO ISZERO ISZERO DUP2 MSTORE POP POP SWAP1 POP DUP1 PUSH1 0x20 ADD MLOAD DUP2 PUSH1 0x0 ADD MLOAD PUSH1 0x40 MLOAD DUP1 PUSH1 0x40 ADD PUSH1 0x40 MSTORE DUP1 PUSH1 0x6 DUP2 MSTORE PUSH1 0x20 ADD PUSH32 0x4973737565720000000000000000000000000000000000000000000000000000 DUP2 MSTORE POP SWAP5 POP SWAP5 POP SWAP5 POP POP POP PUSH2 0xA65 JUMP JUMPDEST PUSH1 0x40 MLOAD PUSH32 0x8C379A000000000000000000000000000000000000000000000000000000000 DUP2 MSTORE PUSH1 0x4 ADD PUSH2 0xA5C SWAP1 PUSH2 0x3254 JUMP JUMPDEST PUSH1 0x40 MLOAD DUP1 SWAP2 SUB SWAP1 REVERT JUMPDEST SWAP2 SWAP4 SWAP1 SWAP3 POP JUMP JUMPDEST PUSH1 0x1 ISZERO ISZERO PUSH2 0xA79 CALLER PUSH2 0x24F0 JUMP JUMPDEST ISZERO ISZERO EQ PUSH2 0xABB JUMPI PUSH1 0x40 MLOAD PUSH32 0x8C379A000000000000000000000000000000000000000000000000000000000 DUP2 MSTORE PUSH1 0x4 ADD PUSH2 0xAB2 SWAP1 PUSH2 0x32E6 JUMP JUMPDEST PUSH1 0x40 MLOAD DUP1 SWAP2 SUB SWAP1 REVERT JUMPDEST PUSH1 0x1 ISZERO ISZERO PUSH2 0xAC8 DUP6 PUSH2 0x2492 JUMP JUMPDEST ISZERO ISZERO EQ PUSH2 0xB0A JUMPI PUSH1 0x40 MLOAD PUSH32 0x8C379A000000000000000000000000000000000000000000000000000000000 DUP2 MSTORE PUSH1 0x4 ADD PUSH2 0xB01 SWAP1 PUSH2 0x3378 JUMP JUMPDEST PUSH1 0x40 MLOAD DUP1 SWAP2 SUB SWAP1 REVERT JUMPDEST PUSH1 0x0 ISZERO ISZERO PUSH1 0x5 DUP5 PUSH1 0x40 MLOAD PUSH2 0xB1E SWAP2 SWAP1 PUSH2 0x3093 JUMP JUMPDEST SWAP1 DUP2 MSTORE PUSH1 0x20 ADD PUSH1 0x40 MLOAD DUP1 SWAP2 SUB SWAP1 KECCAK256 PUSH1 0x6 ADD PUSH1 0x0 SWAP1 SLOAD SWAP1 PUSH2 0x100 EXP SWAP1 DIV PUSH1 0xFF AND ISZERO ISZERO EQ PUSH2 0xB7F JUMPI PUSH1 0x40 MLOAD PUSH32 0x8C379A000000000000000000000000000000000000000000000000000000000 DUP2 MSTORE PUSH1 0x4 ADD PUSH2 0xB76 SWAP1 PUSH2 0x340A JUMP JUMPDEST PUSH1 0x40 MLOAD DUP1 SWAP2 SUB SWAP1 REVERT JUMPDEST PUSH1 0x0 CALLER SWAP1 POP PUSH1 0x0 PUSH1 0x5 DUP6 PUSH1 0x40 MLOAD PUSH2 0xB96 SWAP2 SWAP1 PUSH2 0x3093 JUMP JUMPDEST SWAP1 DUP2 MSTORE PUSH1 0x20 ADD PUSH1 0x40 MLOAD DUP1 SWAP2 SUB SWAP1 KECCAK256 SWAP1 POP PUSH1 0x1 DUP2 PUSH1 0x6 ADD PUSH1 0x0 PUSH2 0x100 EXP DUP2 SLOAD DUP2 PUSH1 0xFF MUL NOT AND SWAP1 DUP4 ISZERO ISZERO MUL OR SWAP1 SSTORE POP DUP7 DUP2 PUSH1 0x0 ADD SWAP1 DUP2 PUSH2 0xBD4 SWAP2 SWAP1 PUSH2 0x35D6 JUMP JUMPDEST POP DUP2 DUP2 PUSH1 0x1 ADD PUSH1 0x0 PUSH2 0x100 EXP DUP2 SLOAD DUP2 PUSH20 0xFFFFFFFFFFFFFFFFFFFFFFFFFFFFFFFFFFFFFFFF MUL NOT AND SWAP1 DUP4 PUSH20 0xFFFFFFFFFFFFFFFFFFFFFFFFFFFFFFFFFFFFFFFF AND MUL OR SWAP1 SSTORE POP DUP6 DUP2 PUSH1 0x2 ADD PUSH1 0x0 PUSH2 0x100 EXP DUP2 SLOAD DUP2 PUSH20 0xFFFFFFFFFFFFFFFFFFFFFFFFFFFFFFFFFFFFFFFF MUL NOT AND SWAP1 DUP4 PUSH20 0xFFFFFFFFFFFFFFFFFFFFFFFFFFFFFFFFFFFFFFFF AND MUL OR SWAP1 SSTORE POP DUP5 DUP2 PUSH1 0x3 ADD SWAP1 DUP2 PUSH2 0xC6C SWAP2 SWAP1 PUSH2 0x35D6 JUMP JUMPDEST POP DUP4 DUP2 PUSH1 0x4 ADD SWAP1 DUP2 PUSH2 0xC7E SWAP2 SWAP1 PUSH2 0x35D6 JUMP JUMPDEST POP DUP3 DUP2 PUSH1 0x5 ADD SWAP1 DUP2 PUSH2 0xC90 SWAP2 SWAP1 PUSH2 0x35D6 JUMP JUMPDEST POP PUSH1 0x1 DUP2 PUSH1 0x6 ADD PUSH1 0x1 PUSH2 0x100 EXP DUP2 SLOAD DUP2 PUSH1 0xFF MUL NOT AND SWAP1 DUP4 ISZERO ISZERO MUL OR SWAP1 SSTORE POP PUSH1 0x6 DUP6 SWAP1 DUP1 PUSH1 0x1 DUP2 SLOAD ADD DUP1 DUP3 SSTORE DUP1 SWAP2 POP POP PUSH1 0x1 SWAP1 SUB SWAP1 PUSH1 0x0 MSTORE PUSH1 0x20 PUSH1 0x0 KECCAK256 ADD PUSH1 0x0 SWAP1 SWAP2 SWAP1 SWAP2 SWAP1 SWAP2 POP SWAP1 DUP2 PUSH2 0xCE2 SWAP2 SWAP1 PUSH2 0x35D6 JUMP JUMPDEST POP POP POP POP POP POP POP POP JUMP JUMPDEST PUSH1 0x0 CALLER SWAP1 POP PUSH1 0x0 PUSH1 0x1 PUSH1 0x0 DUP4 PUSH20 0xFFFFFFFFFFFFFFFFFFFFFFFFFFFFFFFFFFFFFFFF AND PUSH20 0xFFFFFFFFFFFFFFFFFFFFFFFFFFFFFFFFFFFFFFFF AND DUP2 MSTORE PUSH1 0x20 ADD SWAP1 DUP2 MSTORE PUSH1 0x20 ADD PUSH1 0x0 KECCAK256 SWAP1 POP PUSH1 0x0 ISZERO ISZERO DUP2 PUSH1 0x1 ADD PUSH1 0x14 SWAP1 SLOAD SWAP1 PUSH2 0x100 EXP SWAP1 DIV PUSH1 0xFF AND ISZERO ISZERO EQ PUSH2 0xD8C JUMPI PUSH1 0x40 MLOAD PUSH32 0x8C379A000000000000000000000000000000000000000000000000000000000 DUP2 MSTORE PUSH1 0x4 ADD PUSH2 0xD83 SWAP1 PUSH2 0x36F4 JUMP JUMPDEST PUSH1 0x40 MLOAD DUP1 SWAP2 SUB SWAP1 REVERT JUMPDEST PUSH1 0x0 ISZERO ISZERO PUSH2 0xD99 DUP4 PUSH2 0x2492 JUMP JUMPDEST ISZERO ISZERO EQ PUSH2 0xDDB JUMPI PUSH1 0x40 MLOAD PUSH32 0x8C379A000000000000000000000000000000000000000000000000000000000 DUP2 MSTORE PUSH1 0x4 ADD PUSH2 0xDD2 SWAP1 PUSH2 0x3760 JUMP JUMPDEST PUSH1 0x40 MLOAD DUP1 SWAP2 SUB SWAP1 REVERT JUMPDEST DUP2 DUP2 PUSH1 0x1 ADD PUSH1 0x0 PUSH2 0x100 EXP DUP2 SLOAD DUP2 PUSH20 0xFFFFFFFFFFFFFFFFFFFFFFFFFFFFFFFFFFFFFFFF MUL NOT AND SWAP1 DUP4 PUSH20 0xFFFFFFFFFFFFFFFFFFFFFFFFFFFFFFFFFFFFFFFF AND MUL OR SWAP1 SSTORE POP PUSH1 0x1 DUP2 PUSH1 0x1 ADD PUSH1 0x14 PUSH2 0x100 EXP DUP2 SLOAD DUP2 PUSH1 0xFF MUL NOT AND SWAP1 DUP4 ISZERO ISZERO MUL OR SWAP1 SSTORE POP DUP3 DUP2 PUSH1 0x0 ADD SWAP1 DUP2 PUSH2 0xE4C SWAP2 SWAP1 PUSH2 0x35D6 JUMP JUMPDEST POP PUSH1 0x2 DUP3 SWAP1 DUP1 PUSH1 0x1 DUP2 SLOAD ADD DUP1 DUP3 SSTORE DUP1 SWAP2 POP POP PUSH1 0x1 SWAP1 SUB SWAP1 PUSH1 0x0 MSTORE PUSH1 0x20 PUSH1 0x0 KECCAK256 ADD PUSH1 0x0 SWAP1 SWAP2 SWAP1 SWAP2 SWAP1 SWAP2 PUSH2 0x100 EXP DUP2 SLOAD DUP2 PUSH20 0xFFFFFFFFFFFFFFFFFFFFFFFFFFFFFFFFFFFFFFFF MUL NOT AND SWAP1 DUP4 PUSH20 0xFFFFFFFFFFFFFFFFFFFFFFFFFFFFFFFFFFFFFFFF AND MUL OR SWAP1 SSTORE POP POP POP POP JUMP JUMPDEST PUSH1 0x0 CALLER SWAP1 POP PUSH1 0x0 PUSH1 0x3 PUSH1 0x0 DUP4 PUSH20 0xFFFFFFFFFFFFFFFFFFFFFFFFFFFFFFFFFFFFFFFF AND PUSH20 0xFFFFFFFFFFFFFFFFFFFFFFFFFFFFFFFFFFFFFFFF AND DUP2 MSTORE PUSH1 0x20 ADD SWAP1 DUP2 MSTORE PUSH1 0x20 ADD PUSH1 0x0 KECCAK256 SWAP1 POP PUSH1 0x0 ISZERO ISZERO DUP2 PUSH1 0x1 ADD PUSH1 0x14 SWAP1 SLOAD SWAP1 PUSH2 0x100 EXP SWAP1 DIV PUSH1 0xFF AND ISZERO ISZERO EQ PUSH2 0xF55 JUMPI PUSH1 0x40 MLOAD PUSH32 0x8C379A000000000000000000000000000000000000000000000000000000000 DUP2 MSTORE PUSH1 0x4 ADD PUSH2 0xF4C SWAP1 PUSH2 0x37CC JUMP JUMPDEST PUSH1 0x40 MLOAD DUP1 SWAP2 SUB SWAP1 REVERT JUMPDEST PUSH1 0x0 ISZERO ISZERO PUSH2 0xF62 DUP4 PUSH2 0x24F0 JUMP JUMPDEST ISZERO ISZERO EQ PUSH2 0xFA4 JUMPI PUSH1 0x40 MLOAD PUSH32 0x8C379A000000000000000000000000000000000000000000000000000000000 DUP2 MSTORE PUSH1 0x4 ADD PUSH2 0xF9B SWAP1 PUSH2 0x3838 JUMP JUMPDEST PUSH1 0x40 MLOAD DUP1 SWAP2 SUB SWAP1 REVERT JUMPDEST DUP2 DUP2 PUSH1 0x1 ADD PUSH1 0x0 PUSH2 0x100 EXP DUP2 SLOAD DUP2 PUSH20 0xFFFFFFFFFFFFFFFFFFFFFFFFFFFFFFFFFFFFFFFF MUL NOT AND SWAP1 DUP4 PUSH20 0xFFFFFFFFFFFFFFFFFFFFFFFFFFFFFFFFFFFFFFFF AND MUL OR SWAP1 SSTORE POP PUSH1 0x1 DUP2 PUSH1 0x1 ADD PUSH1 0x14 PUSH2 0x100 EXP DUP2 SLOAD DUP2 PUSH1 0xFF MUL NOT AND SWAP1 DUP4 ISZERO ISZERO MUL OR SWAP1 SSTORE POP DUP3 DUP2 PUSH1 0x0 ADD SWAP1 DUP2 PUSH2 0x1015 SWAP2 SWAP1 PUSH2 0x35D6 JUMP JUMPDEST POP PUSH1 0x4 DUP3 SWAP1 DUP1 PUSH1 0x1 DUP2 SLOAD ADD DUP1 DUP3 SSTORE DUP1 SWAP2 POP POP PUSH1 0x1 SWAP1 SUB SWAP1 PUSH1 0x0 MSTORE PUSH1 0x20 PUSH1 0x0 KECCAK256 ADD PUSH1 0x0 SWAP1 SWAP2 SWAP1 SWAP2 SWAP1 SWAP2 PUSH2 0x100 EXP DUP2 SLOAD DUP2 PUSH20 0xFFFFFFFFFFFFFFFFFFFFFFFFFFFFFFFFFFFFFFFF MUL NOT AND SWAP1 DUP4 PUSH20 0xFFFFFFFFFFFFFFFFFFFFFFFFFFFFFFFFFFFFFFFF AND MUL OR SWAP1 SSTORE POP POP POP POP JUMP JUMPDEST PUSH1 0x0 DUP1 CALLER SWAP1 POP PUSH2 0x108D DUP2 PUSH2 0x24F0 JUMP JUMPDEST SWAP2 POP POP SWAP1 JUMP JUMPDEST PUSH1 0x60 PUSH2 0x109E CALLER PUSH2 0x254E JUMP JUMPDEST SWAP1 POP SWAP1 JUMP JUMPDEST PUSH1 0x0 PUSH1 0x60 DUP1 PUSH1 0x0 CALLER SWAP1 POP PUSH2 0x10B6 DUP2 PUSH2 0x1F51 JUMP JUMPDEST PUSH2 0x1133 JUMPI DUP1 PUSH1 0x40 MLOAD DUP1 PUSH1 0x40 ADD PUSH1 0x40 MSTORE DUP1 PUSH1 0x2 DUP2 MSTORE PUSH1 0x20 ADD PUSH32 0x4E41000000000000000000000000000000000000000000000000000000000000 DUP2 MSTORE POP PUSH1 0x40 MLOAD DUP1 PUSH1 0x40 ADD PUSH1 0x40 MSTORE DUP1 PUSH1 0x2 DUP2 MSTORE PUSH1 0x20 ADD PUSH32 0x4E41000000000000000000000000000000000000000000000000000000000000 DUP2 MSTORE POP SWAP4 POP SWAP4 POP SWAP4 POP POP PUSH2 0x14C6 JUMP JUMPDEST PUSH2 0x113C DUP2 PUSH2 0x2492 JUMP JUMPDEST ISZERO PUSH2 0x12DF JUMPI PUSH1 0x0 PUSH1 0x3 PUSH1 0x0 DUP4 PUSH20 0xFFFFFFFFFFFFFFFFFFFFFFFFFFFFFFFFFFFFFFFF AND PUSH20 0xFFFFFFFFFFFFFFFFFFFFFFFFFFFFFFFFFFFFFFFF AND DUP2 MSTORE PUSH1 0x20 ADD SWAP1 DUP2 MSTORE PUSH1 0x20 ADD PUSH1 0x0 KECCAK256 PUSH1 0x40 MLOAD DUP1 PUSH1 0x60 ADD PUSH1 0x40 MSTORE SWAP1 DUP2 PUSH1 0x0 DUP3 ADD DUP1 SLOAD PUSH2 0x119D SWAP1 PUSH2 0x30D9 JUMP JUMPDEST DUP1 PUSH1 0x1F ADD PUSH1 0x20 DUP1 SWAP2 DIV MUL PUSH1 0x20 ADD PUSH1 0x40 MLOAD SWAP1 DUP2 ADD PUSH1 0x40 MSTORE DUP1 SWAP3 SWAP2 SWAP1 DUP2 DUP2 MSTORE PUSH1 0x20 ADD DUP3 DUP1 SLOAD PUSH2 0x11C9 SWAP1 PUSH2 0x30D9 JUMP JUMPDEST DUP1 ISZERO PUSH2 0x1216 JUMPI DUP1 PUSH1 0x1F LT PUSH2 0x11EB JUMPI PUSH2 0x100 DUP1 DUP4 SLOAD DIV MUL DUP4 MSTORE SWAP2 PUSH1 0x20 ADD SWAP2 PUSH2 0x1216 JUMP JUMPDEST DUP3 ADD SWAP2 SWAP1 PUSH1 0x0 MSTORE PUSH1 0x20 PUSH1 0x0 KECCAK256 SWAP1 JUMPDEST DUP2 SLOAD DUP2 MSTORE SWAP1 PUSH1 0x1 ADD SWAP1 PUSH1 0x20 ADD DUP1 DUP4 GT PUSH2 0x11F9 JUMPI DUP3 SWAP1 SUB PUSH1 0x1F AND DUP3 ADD SWAP2 JUMPDEST POP POP POP POP POP DUP2 MSTORE PUSH1 0x20 ADD PUSH1 0x1 DUP3 ADD PUSH1 0x0 SWAP1 SLOAD SWAP1 PUSH2 0x100 EXP SWAP1 DIV PUSH20 0xFFFFFFFFFFFFFFFFFFFFFFFFFFFFFFFFFFFFFFFF AND PUSH20 0xFFFFFFFFFFFFFFFFFFFFFFFFFFFFFFFFFFFFFFFF AND PUSH20 0xFFFFFFFFFFFFFFFFFFFFFFFFFFFFFFFFFFFFFFFF AND DUP2 MSTORE PUSH1 0x20 ADD PUSH1 0x1 DUP3 ADD PUSH1 0x14 SWAP1 SLOAD SWAP1 PUSH2 0x100 EXP SWAP1 DIV PUSH1 0xFF AND ISZERO ISZERO ISZERO ISZERO DUP2 MSTORE POP POP SWAP1 POP DUP1 PUSH1 0x20 ADD MLOAD DUP2 PUSH1 0x0 ADD MLOAD PUSH1 0x40 MLOAD DUP1 PUSH1 0x40 ADD PUSH1 0x40 MSTORE DUP1 PUSH1 0x4 DUP2 MSTORE PUSH1 0x20 ADD PUSH32 0x5573657200000000000000000000000000000000000000000000000000000000 DUP2 MSTORE POP SWAP5 POP SWAP5 POP SWAP5 POP POP POP PUSH2 0x14C6 JUMP JUMPDEST PUSH2 0x12E8 DUP2 PUSH2 0x24F0 JUMP JUMPDEST ISZERO PUSH2 0x148B JUMPI PUSH1 0x0 PUSH1 0x1 PUSH1 0x0 DUP4 PUSH20 0xFFFFFFFFFFFFFFFFFFFFFFFFFFFFFFFFFFFFFFFF AND PUSH20 0xFFFFFFFFFFFFFFFFFFFFFFFFFFFFFFFFFFFFFFFF AND DUP2 MSTORE PUSH1 0x20 ADD SWAP1 DUP2 MSTORE PUSH1 0x20 ADD PUSH1 0x0 KECCAK256 PUSH1 0x40 MLOAD DUP1 PUSH1 0x60 ADD PUSH1 0x40 MSTORE SWAP1 DUP2 PUSH1 0x0 DUP3 ADD DUP1 SLOAD PUSH2 0x1349 SWAP1 PUSH2 0x30D9 JUMP JUMPDEST DUP1 PUSH1 0x1F ADD PUSH1 0x20 DUP1 SWAP2 DIV MUL PUSH1 0x20 ADD PUSH1 0x40 MLOAD SWAP1 DUP2 ADD PUSH1 0x40 MSTORE DUP1 SWAP3 SWAP2 SWAP1 DUP2 DUP2 MSTORE PUSH1 0x20 ADD DUP3 DUP1 SLOAD PUSH2 0x1375 SWAP1 PUSH2 0x30D9 JUMP JUMPDEST DUP1 ISZERO PUSH2 0x13C2 JUMPI DUP1 PUSH1 0x1F LT PUSH2 0x1397 JUMPI PUSH2 0x100 DUP1 DUP4 SLOAD DIV MUL DUP4 MSTORE SWAP2 PUSH1 0x20 ADD SWAP2 PUSH2 0x13C2 JUMP JUMPDEST DUP3 ADD SWAP2 SWAP1 PUSH1 0x0 MSTORE PUSH1 0x20 PUSH1 0x0 KECCAK256 SWAP1 JUMPDEST DUP2 SLOAD DUP2 MSTORE SWAP1 PUSH1 0x1 ADD SWAP1 PUSH1 0x20 ADD DUP1 DUP4 GT PUSH2 0x13A5 JUMPI DUP3 SWAP1 SUB PUSH1 0x1F AND DUP3 ADD SWAP2 JUMPDEST POP POP POP POP POP DUP2 MSTORE PUSH1 0x20 ADD PUSH1 0x1 DUP3 ADD PUSH1 0x0 SWAP1 SLOAD SWAP1 PUSH2 0x100 EXP SWAP1 DIV PUSH20 0xFFFFFFFFFFFFFFFFFFFFFFFFFFFFFFFFFFFFFFFF AND PUSH20 0xFFFFFFFFFFFFFFFFFFFFFFFFFFFFFFFFFFFFFFFF AND PUSH20 0xFFFFFFFFFFFFFFFFFFFFFFFFFFFFFFFFFFFFFFFF AND DUP2 MSTORE PUSH1 0x20 ADD PUSH1 0x1 DUP3 ADD PUSH1 0x14 SWAP1 SLOAD SWAP1 PUSH2 0x100 EXP SWAP1 DIV PUSH1 0xFF AND ISZERO ISZERO ISZERO ISZERO DUP2 MSTORE POP POP SWAP1 POP DUP1 PUSH1 0x20 ADD MLOAD DUP2 PUSH1 0x0 ADD MLOAD PUSH1 0x40 MLOAD DUP1 PUSH1 0x40 ADD PUSH1 0x40 MSTORE DUP1 PUSH1 0x6 DUP2 MSTORE PUSH1 0x20 ADD PUSH32 0x4973737565720000000000000000000000000000000000000000000000000000 DUP2 MSTORE POP SWAP5 POP SWAP5 POP SWAP5 POP POP POP PUSH2 0x14C6 JUMP JUMPDEST PUSH1 0x40 MLOAD PUSH32 0x8C379A000000000000000000000000000000000000000000000000000000000 DUP2 MSTORE PUSH1 0x4 ADD PUSH2 0x14BD SWAP1 PUSH2 0x3254 JUMP JUMPDEST PUSH1 0x40 MLOAD DUP1 SWAP2 SUB SWAP1 REVERT JUMPDEST SWAP1 SWAP2 SWAP3 JUMP JUMPDEST PUSH1 0x60 PUSH1 0x0 DUP1 PUSH1 0x60 DUP1 PUSH1 0x0 DUP1 PUSH1 0x5 DUP9 PUSH1 0x40 MLOAD PUSH2 0x14E6 SWAP2 SWAP1 PUSH2 0x3093 JUMP JUMPDEST SWAP1 DUP2 MSTORE PUSH1 0x20 ADD PUSH1 0x40 MLOAD DUP1 SWAP2 SUB SWAP1 KECCAK256 SWAP1 POP DUP1 PUSH1 0x0 ADD DUP2 PUSH1 0x1 ADD PUSH1 0x0 SWAP1 SLOAD SWAP1 PUSH2 0x100 EXP SWAP1 DIV PUSH20 0xFFFFFFFFFFFFFFFFFFFFFFFFFFFFFFFFFFFFFFFF AND DUP3 PUSH1 0x2 ADD PUSH1 0x0 SWAP1 SLOAD SWAP1 PUSH2 0x100 EXP SWAP1 DIV PUSH20 0xFFFFFFFFFFFFFFFFFFFFFFFFFFFFFFFFFFFFFFFF AND DUP4 PUSH1 0x3 ADD DUP5 PUSH1 0x5 ADD DUP6 PUSH1 0x6 ADD PUSH1 0x1 SWAP1 SLOAD SWAP1 PUSH2 0x100 EXP SWAP1 DIV PUSH1 0xFF AND DUP6 DUP1 SLOAD PUSH2 0x156A SWAP1 PUSH2 0x30D9 JUMP JUMPDEST DUP1 PUSH1 0x1F ADD PUSH1 0x20 DUP1 SWAP2 DIV MUL PUSH1 0x20 ADD PUSH1 0x40 MLOAD SWAP1 DUP2 ADD PUSH1 0x40 MSTORE DUP1 SWAP3 SWAP2 SWAP1 DUP2 DUP2 MSTORE PUSH1 0x20 ADD DUP3 DUP1 SLOAD PUSH2 0x1596 SWAP1 PUSH2 0x30D9 JUMP JUMPDEST DUP1 ISZERO PUSH2 0x15E3 JUMPI DUP1 PUSH1 0x1F LT PUSH2 0x15B8 JUMPI PUSH2 0x100 DUP1 DUP4 SLOAD DIV MUL DUP4 MSTORE SWAP2 PUSH1 0x20 ADD SWAP2 PUSH2 0x15E3 JUMP JUMPDEST DUP3 ADD SWAP2 SWAP1 PUSH1 0x0 MSTORE PUSH1 0x20 PUSH1 0x0 KECCAK256 SWAP1 JUMPDEST DUP2 SLOAD DUP2 MSTORE SWAP1 PUSH1 0x1 ADD SWAP1 PUSH1 0x20 ADD DUP1 DUP4 GT PUSH2 0x15C6 JUMPI DUP3 SWAP1 SUB PUSH1 0x1F AND DUP3 ADD SWAP2 JUMPDEST POP POP POP POP POP SWAP6 POP DUP3 DUP1 SLOAD PUSH2 0x15F6 SWAP1 PUSH2 0x30D9 JUMP JUMPDEST DUP1 PUSH1 0x1F ADD PUSH1 0x20 DUP1 SWAP2 DIV MUL PUSH1 0x20 ADD PUSH1 0x40 MLOAD SWAP1 DUP2 ADD PUSH1 0x40 MSTORE DUP1 SWAP3 SWAP2 SWAP1 DUP2 DUP2 MSTORE PUSH1 0x20 ADD DUP3 DUP1 SLOAD PUSH2 0x1622 SWAP1 PUSH2 0x30D9 JUMP JUMPDEST DUP1 ISZERO PUSH2 0x166F JUMPI DUP1 PUSH1 0x1F LT PUSH2 0x1644 JUMPI PUSH2 0x100 DUP1 DUP4 SLOAD DIV MUL DUP4 MSTORE SWAP2 PUSH1 0x20 ADD SWAP2 PUSH2 0x166F JUMP JUMPDEST DUP3 ADD SWAP2 SWAP1 PUSH1 0x0 MSTORE PUSH1 0x20 PUSH1 0x0 KECCAK256 SWAP1 JUMPDEST DUP2 SLOAD DUP2 MSTORE SWAP1 PUSH1 0x1 ADD SWAP1 PUSH1 0x20 ADD DUP1 DUP4 GT PUSH2 0x1652 JUMPI DUP3 SWAP1 SUB PUSH1 0x1F AND DUP3 ADD SWAP2 JUMPDEST POP POP POP POP POP SWAP3 POP DUP2 DUP1 SLOAD PUSH2 0x1682 SWAP1 PUSH2 0x30D9 JUMP JUMPDEST DUP1 PUSH1 0x1F ADD PUSH1 0x20 DUP1 SWAP2 DIV MUL PUSH1 0x20 ADD PUSH1 0x40 MLOAD SWAP1 DUP2 ADD PUSH1 0x40 MSTORE DUP1 SWAP3 SWAP2 SWAP1 DUP2 DUP2 MSTORE PUSH1 0x20 ADD DUP3 DUP1 SLOAD PUSH2 0x16AE SWAP1 PUSH2 0x30D9 JUMP JUMPDEST DUP1 ISZERO PUSH2 0x16FB JUMPI DUP1 PUSH1 0x1F LT PUSH2 0x16D0 JUMPI PUSH2 0x100 DUP1 DUP4 SLOAD DIV MUL DUP4 MSTORE SWAP2 PUSH1 0x20 ADD SWAP2 PUSH2 0x16FB JUMP JUMPDEST DUP3 ADD SWAP2 SWAP1 PUSH1 0x0 MSTORE PUSH1 0x20 PUSH1 0x0 KECCAK256 SWAP1 JUMPDEST DUP2 SLOAD DUP2 MSTORE SWAP1 PUSH1 0x1 ADD SWAP1 PUSH1 0x20 ADD DUP1 DUP4 GT PUSH2 0x16DE JUMPI DUP3 SWAP1 SUB PUSH1 0x1F AND DUP3 ADD SWAP2 JUMPDEST POP POP POP POP POP SWAP2 POP SWAP7 POP SWAP7 POP SWAP7 POP SWAP7 POP SWAP7 POP SWAP7 POP POP SWAP2 SWAP4 SWAP6 POP SWAP2 SWAP4 SWAP6 JUMP JUMPDEST PUSH1 0x0 DUP2 PUSH1 0x40 MLOAD PUSH1 0x20 ADD PUSH2 0x172B SWAP2 SWAP1 PUSH2 0x3093 JUMP JUMPDEST PUSH1 0x40 MLOAD PUSH1 0x20 DUP2 DUP4 SUB SUB DUP2 MSTORE SWAP1 PUSH1 0x40 MSTORE DUP1 MLOAD SWAP1 PUSH1 0x20 ADD KECCAK256 DUP4 PUSH1 0x40 MLOAD PUSH1 0x20 ADD PUSH2 0x1752 SWAP2 SWAP1 PUSH2 0x3093 JUMP JUMPDEST PUSH1 0x40 MLOAD PUSH1 0x20 DUP2 DUP4 SUB SUB DUP2 MSTORE SWAP1 PUSH1 0x40 MSTORE DUP1 MLOAD SWAP1 PUSH1 0x20 ADD KECCAK256 EQ SWAP1 POP SWAP3 SWAP2 POP POP JUMP JUMPDEST PUSH1 0x0 DUP1 PUSH1 0x0 SWAP1 POP PUSH1 0x0 JUMPDEST PUSH1 0x6 DUP1 SLOAD SWAP1 POP DUP2 LT ISZERO PUSH2 0x1B57 JUMPI PUSH1 0x0 PUSH1 0x5 PUSH1 0x6 DUP4 DUP2 SLOAD DUP2 LT PUSH2 0x17A0 JUMPI PUSH2 0x179F PUSH2 0x3858 JUMP JUMPDEST JUMPDEST SWAP1 PUSH1 0x0 MSTORE PUSH1 0x20 PUSH1 0x0 KECCAK256 ADD PUSH1 0x40 MLOAD PUSH2 0x17B7 SWAP2 SWAP1 PUSH2 0x390A JUMP JUMPDEST SWAP1 DUP2 MSTORE PUSH1 0x20 ADD PUSH1 0x40 MLOAD DUP1 SWAP2 SUB SWAP1 KECCAK256 PUSH1 0x40 MLOAD DUP1 PUSH2 0x100 ADD PUSH1 0x40 MSTORE SWAP1 DUP2 PUSH1 0x0 DUP3 ADD DUP1 SLOAD PUSH2 0x17E1 SWAP1 PUSH2 0x30D9 JUMP JUMPDEST DUP1 PUSH1 0x1F ADD PUSH1 0x20 DUP1 SWAP2 DIV MUL PUSH1 0x20 ADD PUSH1 0x40 MLOAD SWAP1 DUP2 ADD PUSH1 0x40 MSTORE DUP1 SWAP3 SWAP2 SWAP1 DUP2 DUP2 MSTORE PUSH1 0x20 ADD DUP3 DUP1 SLOAD PUSH2 0x180D SWAP1 PUSH2 0x30D9 JUMP JUMPDEST DUP1 ISZERO PUSH2 0x185A JUMPI DUP1 PUSH1 0x1F LT PUSH2 0x182F JUMPI PUSH2 0x100 DUP1 DUP4 SLOAD DIV MUL DUP4 MSTORE SWAP2 PUSH1 0x20 ADD SWAP2 PUSH2 0x185A JUMP JUMPDEST DUP3 ADD SWAP2 SWAP1 PUSH1 0x0 MSTORE PUSH1 0x20 PUSH1 0x0 KECCAK256 SWAP1 JUMPDEST DUP2 SLOAD DUP2 MSTORE SWAP1 PUSH1 0x1 ADD SWAP1 PUSH1 0x20 ADD DUP1 DUP4 GT PUSH2 0x183D JUMPI DUP3 SWAP1 SUB PUSH1 0x1F AND DUP3 ADD SWAP2 JUMPDEST POP POP POP POP POP DUP2 MSTORE PUSH1 0x20 ADD PUSH1 0x1 DUP3 ADD PUSH1 0x0 SWAP1 SLOAD SWAP1 PUSH2 0x100 EXP SWAP1 DIV PUSH20 0xFFFFFFFFFFFFFFFFFFFFFFFFFFFFFFFFFFFFFFFF AND PUSH20 0xFFFFFFFFFFFFFFFFFFFFFFFFFFFFFFFFFFFFFFFF AND PUSH20 0xFFFFFFFFFFFFFFFFFFFFFFFFFFFFFFFFFFFFFFFF AND DUP2 MSTORE PUSH1 0x20 ADD PUSH1 0x2 DUP3 ADD PUSH1 0x0 SWAP1 SLOAD SWAP1 PUSH2 0x100 EXP SWAP1 DIV PUSH20 0xFFFFFFFFFFFFFFFFFFFFFFFFFFFFFFFFFFFFFFFF AND PUSH20 0xFFFFFFFFFFFFFFFFFFFFFFFFFFFFFFFFFFFFFFFF AND PUSH20 0xFFFFFFFFFFFFFFFFFFFFFFFFFFFFFFFFFFFFFFFF AND DUP2 MSTORE PUSH1 0x20 ADD PUSH1 0x3 DUP3 ADD DUP1 SLOAD PUSH2 0x191F SWAP1 PUSH2 0x30D9 JUMP JUMPDEST DUP1 PUSH1 0x1F ADD PUSH1 0x20 DUP1 SWAP2 DIV MUL PUSH1 0x20 ADD PUSH1 0x40 MLOAD SWAP1 DUP2 ADD PUSH1 0x40 MSTORE DUP1 SWAP3 SWAP2 SWAP1 DUP2 DUP2 MSTORE PUSH1 0x20 ADD DUP3 DUP1 SLOAD PUSH2 0x194B SWAP1 PUSH2 0x30D9 JUMP JUMPDEST DUP1 ISZERO PUSH2 0x1998 JUMPI DUP1 PUSH1 0x1F LT PUSH2 0x196D JUMPI PUSH2 0x100 DUP1 DUP4 SLOAD DIV MUL DUP4 MSTORE SWAP2 PUSH1 0x20 ADD SWAP2 PUSH2 0x1998 JUMP JUMPDEST DUP3 ADD SWAP2 SWAP1 PUSH1 0x0 MSTORE PUSH1 0x20 PUSH1 0x0 KECCAK256 SWAP1 JUMPDEST DUP2 SLOAD DUP2 MSTORE SWAP1 PUSH1 0x1 ADD SWAP1 PUSH1 0x20 ADD DUP1 DUP4 GT PUSH2 0x197B JUMPI DUP3 SWAP1 SUB PUSH1 0x1F AND DUP3 ADD SWAP2 JUMPDEST POP POP POP POP POP DUP2 MSTORE PUSH1 0x20 ADD PUSH1 0x4 DUP3 ADD DUP1 SLOAD PUSH2 0x19B1 SWAP1 PUSH2 0x30D9 JUMP JUMPDEST DUP1 PUSH1 0x1F ADD PUSH1 0x20 DUP1 SWAP2 DIV MUL PUSH1 0x20 ADD PUSH1 0x40 MLOAD SWAP1 DUP2 ADD PUSH1 0x40 MSTORE DUP1 SWAP3 SWAP2 SWAP1 DUP2 DUP2 MSTORE PUSH1 0x20 ADD DUP3 DUP1 SLOAD PUSH2 0x19DD SWAP1 PUSH2 0x30D9 JUMP JUMPDEST DUP1 ISZERO PUSH2 0x1A2A JUMPI DUP1 PUSH1 0x1F LT PUSH2 0x19FF JUMPI PUSH2 0x100 DUP1 DUP4 SLOAD DIV MUL DUP4 MSTORE SWAP2 PUSH1 0x20 ADD SWAP2 PUSH2 0x1A2A JUMP JUMPDEST DUP3 ADD SWAP2 SWAP1 PUSH1 0x0 MSTORE PUSH1 0x20 PUSH1 0x0 KECCAK256 SWAP1 JUMPDEST DUP2 SLOAD DUP2 MSTORE SWAP1 PUSH1 0x1 ADD SWAP1 PUSH1 0x20 ADD DUP1 DUP4 GT PUSH2 0x1A0D JUMPI DUP3 SWAP1 SUB PUSH1 0x1F AND DUP3 ADD SWAP2 JUMPDEST POP POP POP POP POP DUP2 MSTORE PUSH1 0x20 ADD PUSH1 0x5 DUP3 ADD DUP1 SLOAD PUSH2 0x1A43 SWAP1 PUSH2 0x30D9 JUMP JUMPDEST DUP1 PUSH1 0x1F ADD PUSH1 0x20 DUP1 SWAP2 DIV MUL PUSH1 0x20 ADD PUSH1 0x40 MLOAD SWAP1 DUP2 ADD PUSH1 0x40 MSTORE DUP1 SWAP3 SWAP2 SWAP1 DUP2 DUP2 MSTORE PUSH1 0x20 ADD DUP3 DUP1 SLOAD PUSH2 0x1A6F SWAP1 PUSH2 0x30D9 JUMP JUMPDEST DUP1 ISZERO PUSH2 0x1ABC JUMPI DUP1 PUSH1 0x1F LT PUSH2 0x1A91 JUMPI PUSH2 0x100 DUP1 DUP4 SLOAD DIV MUL DUP4 MSTORE SWAP2 PUSH1 0x20 ADD SWAP2 PUSH2 0x1ABC JUMP JUMPDEST DUP3 ADD SWAP2 SWAP1 PUSH1 0x0 MSTORE PUSH1 0x20 PUSH1 0x0 KECCAK256 SWAP1 JUMPDEST DUP2 SLOAD DUP2 MSTORE SWAP1 PUSH1 0x1 ADD SWAP1 PUSH1 0x20 ADD DUP1 DUP4 GT PUSH2 0x1A9F JUMPI DUP3 SWAP1 SUB PUSH1 0x1F AND DUP3 ADD SWAP2 JUMPDEST POP POP POP POP POP DUP2 MSTORE PUSH1 0x20 ADD PUSH1 0x6 DUP3 ADD PUSH1 0x0 SWAP1 SLOAD SWAP1 PUSH2 0x100 EXP SWAP1 DIV PUSH1 0xFF AND ISZERO ISZERO ISZERO ISZERO DUP2 MSTORE PUSH1 0x20 ADD PUSH1 0x6 DUP3 ADD PUSH1 0x1 SWAP1 SLOAD SWAP1 PUSH2 0x100 EXP SWAP1 DIV PUSH1 0xFF AND ISZERO ISZERO ISZERO ISZERO DUP2 MSTORE POP POP SWAP1 POP DUP5 PUSH20 0xFFFFFFFFFFFFFFFFFFFFFFFFFFFFFFFFFFFFFFFF AND DUP2 PUSH1 0x20 ADD MLOAD PUSH20 0xFFFFFFFFFFFFFFFFFFFFFFFFFFFFFFFFFFFFFFFF AND SUB PUSH2 0x1B43 JUMPI DUP3 DUP1 PUSH2 0x1B3F SWAP1 PUSH2 0x3950 JUMP JUMPDEST SWAP4 POP POP JUMPDEST POP DUP1 DUP1 PUSH2 0x1B4F SWAP1 PUSH2 0x3950 JUMP JUMPDEST SWAP2 POP POP PUSH2 0x177B JUMP JUMPDEST POP DUP1 SWAP2 POP POP SWAP2 SWAP1 POP JUMP JUMPDEST PUSH1 0x0 DUP1 PUSH1 0x0 SWAP1 POP PUSH1 0x0 JUMPDEST PUSH1 0x6 DUP1 SLOAD SWAP1 POP DUP2 LT ISZERO PUSH2 0x1F47 JUMPI PUSH1 0x0 PUSH1 0x5 PUSH1 0x6 DUP4 DUP2 SLOAD DUP2 LT PUSH2 0x1B90 JUMPI PUSH2 0x1B8F PUSH2 0x3858 JUMP JUMPDEST JUMPDEST SWAP1 PUSH1 0x0 MSTORE PUSH1 0x20 PUSH1 0x0 KECCAK256 ADD PUSH1 0x40 MLOAD PUSH2 0x1BA7 SWAP2 SWAP1 PUSH2 0x390A JUMP JUMPDEST SWAP1 DUP2 MSTORE PUSH1 0x20 ADD PUSH1 0x40 MLOAD DUP1 SWAP2 SUB SWAP1 KECCAK256 PUSH1 0x40 MLOAD DUP1 PUSH2 0x100 ADD PUSH1 0x40 MSTORE SWAP1 DUP2 PUSH1 0x0 DUP3 ADD DUP1 SLOAD PUSH2 0x1BD1 SWAP1 PUSH2 0x30D9 JUMP JUMPDEST DUP1 PUSH1 0x1F ADD PUSH1 0x20 DUP1 SWAP2 DIV MUL PUSH1 0x20 ADD PUSH1 0x40 MLOAD SWAP1 DUP2 ADD PUSH1 0x40 MSTORE DUP1 SWAP3 SWAP2 SWAP1 DUP2 DUP2 MSTORE PUSH1 0x20 ADD DUP3 DUP1 SLOAD PUSH2 0x1BFD SWAP1 PUSH2 0x30D9 JUMP JUMPDEST DUP1 ISZERO PUSH2 0x1C4A JUMPI DUP1 PUSH1 0x1F LT PUSH2 0x1C1F JUMPI PUSH2 0x100 DUP1 DUP4 SLOAD DIV MUL DUP4 MSTORE SWAP2 PUSH1 0x20 ADD SWAP2 PUSH2 0x1C4A JUMP JUMPDEST DUP3 ADD SWAP2 SWAP1 PUSH1 0x0 MSTORE PUSH1 0x20 PUSH1 0x0 KECCAK256 SWAP1 JUMPDEST DUP2 SLOAD DUP2 MSTORE SWAP1 PUSH1 0x1 ADD SWAP1 PUSH1 0x20 ADD DUP1 DUP4 GT PUSH2 0x1C2D JUMPI DUP3 SWAP1 SUB PUSH1 0x1F AND DUP3 ADD SWAP2 JUMPDEST POP POP POP POP POP DUP2 MSTORE PUSH1 0x20 ADD PUSH1 0x1 DUP3 ADD PUSH1 0x0 SWAP1 SLOAD SWAP1 PUSH2 0x100 EXP SWAP1 DIV PUSH20 0xFFFFFFFFFFFFFFFFFFFFFFFFFFFFFFFFFFFFFFFF AND PUSH20 0xFFFFFFFFFFFFFFFFFFFFFFFFFFFFFFFFFFFFFFFF AND PUSH20 0xFFFFFFFFFFFFFFFFFFFFFFFFFFFFFFFFFFFFFFFF AND DUP2 MSTORE PUSH1 0x20 ADD PUSH1 0x2 DUP3 ADD PUSH1 0x0 SWAP1 SLOAD SWAP1 PUSH2 0x100 EXP SWAP1 DIV PUSH20 0xFFFFFFFFFFFFFFFFFFFFFFFFFFFFFFFFFFFFFFFF AND PUSH20 0xFFFFFFFFFFFFFFFFFFFFFFFFFFFFFFFFFFFFFFFF AND PUSH20 0xFFFFFFFFFFFFFFFFFFFFFFFFFFFFFFFFFFFFFFFF AND DUP2 MSTORE PUSH1 0x20 ADD PUSH1 0x3 DUP3 ADD DUP1 SLOAD PUSH2 0x1D0F SWAP1 PUSH2 0x30D9 JUMP JUMPDEST DUP1 PUSH1 0x1F ADD PUSH1 0x20 DUP1 SWAP2 DIV MUL PUSH1 0x20 ADD PUSH1 0x40 MLOAD SWAP1 DUP2 ADD PUSH1 0x40 MSTORE DUP1 SWAP3 SWAP2 SWAP1 DUP2 DUP2 MSTORE PUSH1 0x20 ADD DUP3 DUP1 SLOAD PUSH2 0x1D3B SWAP1 PUSH2 0x30D9 JUMP JUMPDEST DUP1 ISZERO PUSH2 0x1D88 JUMPI DUP1 PUSH1 0x1F LT PUSH2 0x1D5D JUMPI PUSH2 0x100 DUP1 DUP4 SLOAD DIV MUL DUP4 MSTORE SWAP2 PUSH1 0x20 ADD SWAP2 PUSH2 0x1D88 JUMP JUMPDEST DUP3 ADD SWAP2 SWAP1 PUSH1 0x0 MSTORE PUSH1 0x20 PUSH1 0x0 KECCAK256 SWAP1 JUMPDEST DUP2 SLOAD DUP2 MSTORE SWAP1 PUSH1 0x1 ADD SWAP1 PUSH1 0x20 ADD DUP1 DUP4 GT PUSH2 0x1D6B JUMPI DUP3 SWAP1 SUB PUSH1 0x1F AND DUP3 ADD SWAP2 JUMPDEST POP POP POP POP POP DUP2 MSTORE PUSH1 0x20 ADD PUSH1 0x4 DUP3 ADD DUP1 SLOAD PUSH2 0x1DA1 SWAP1 PUSH2 0x30D9 JUMP JUMPDEST DUP1 PUSH1 0x1F ADD PUSH1 0x20 DUP1 SWAP2 DIV MUL PUSH1 0x20 ADD PUSH1 0x40 MLOAD SWAP1 DUP2 ADD PUSH1 0x40 MSTORE DUP1 SWAP3 SWAP2 SWAP1 DUP2 DUP2 MSTORE PUSH1 0x20 ADD DUP3 DUP1 SLOAD PUSH2 0x1DCD SWAP1 PUSH2 0x30D9 JUMP JUMPDEST DUP1 ISZERO PUSH2 0x1E1A JUMPI DUP1 PUSH1 0x1F LT PUSH2 0x1DEF JUMPI PUSH2 0x100 DUP1 DUP4 SLOAD DIV MUL DUP4 MSTORE SWAP2 PUSH1 0x20 ADD SWAP2 PUSH2 0x1E1A JUMP JUMPDEST DUP3 ADD SWAP2 SWAP1 PUSH1 0x0 MSTORE PUSH1 0x20 PUSH1 0x0 KECCAK256 SWAP1 JUMPDEST DUP2 SLOAD DUP2 MSTORE SWAP1 PUSH1 0x1 ADD SWAP1 PUSH1 0x20 ADD DUP1 DUP4 GT PUSH2 0x1DFD JUMPI DUP3 SWAP1 SUB PUSH1 0x1F AND DUP3 ADD SWAP2 JUMPDEST POP POP POP POP POP DUP2 MSTORE PUSH1 0x20 ADD PUSH1 0x5 DUP3 ADD DUP1 SLOAD PUSH2 0x1E33 SWAP1 PUSH2 0x30D9 JUMP JUMPDEST DUP1 PUSH1 0x1F ADD PUSH1 0x20 DUP1 SWAP2 DIV MUL PUSH1 0x20 ADD PUSH1 0x40 MLOAD SWAP1 DUP2 ADD PUSH1 0x40 MSTORE DUP1 SWAP3 SWAP2 SWAP1 DUP2 DUP2 MSTORE PUSH1 0x20 ADD DUP3 DUP1 SLOAD PUSH2 0x1E5F SWAP1 PUSH2 0x30D9 JUMP JUMPDEST DUP1 ISZERO PUSH2 0x1EAC JUMPI DUP1 PUSH1 0x1F LT PUSH2 0x1E81 JUMPI PUSH2 0x100 DUP1 DUP4 SLOAD DIV MUL DUP4 MSTORE SWAP2 PUSH1 0x20 ADD SWAP2 PUSH2 0x1EAC JUMP JUMPDEST DUP3 ADD SWAP2 SWAP1 PUSH1 0x0 MSTORE PUSH1 0x20 PUSH1 0x0 KECCAK256 SWAP1 JUMPDEST DUP2 SLOAD DUP2 MSTORE SWAP1 PUSH1 0x1 ADD SWAP1 PUSH1 0x20 ADD DUP1 DUP4 GT PUSH2 0x1E8F JUMPI DUP3 SWAP1 SUB PUSH1 0x1F AND DUP3 ADD SWAP2 JUMPDEST POP POP POP POP POP DUP2 MSTORE PUSH1 0x20 ADD PUSH1 0x6 DUP3 ADD PUSH1 0x0 SWAP1 SLOAD SWAP1 PUSH2 0x100 EXP SWAP1 DIV PUSH1 0xFF AND ISZERO ISZERO ISZERO ISZERO DUP2 MSTORE PUSH1 0x20 ADD PUSH1 0x6 DUP3 ADD PUSH1 0x1 SWAP1 SLOAD SWAP1 PUSH2 0x100 EXP SWAP1 DIV PUSH1 0xFF AND ISZERO ISZERO ISZERO ISZERO DUP2 MSTORE POP POP SWAP1 POP DUP5 PUSH20 0xFFFFFFFFFFFFFFFFFFFFFFFFFFFFFFFFFFFFFFFF AND DUP2 PUSH1 0x40 ADD MLOAD PUSH20 0xFFFFFFFFFFFFFFFFFFFFFFFFFFFFFFFFFFFFFFFF AND SUB PUSH2 0x1F33 JUMPI DUP3 DUP1 PUSH2 0x1F2F SWAP1 PUSH2 0x3950 JUMP JUMPDEST SWAP4 POP POP JUMPDEST POP DUP1 DUP1 PUSH2 0x1F3F SWAP1 PUSH2 0x3950 JUMP JUMPDEST SWAP2 POP POP PUSH2 0x1B6B JUMP JUMPDEST POP DUP1 SWAP2 POP POP SWAP2 SWAP1 POP JUMP JUMPDEST PUSH1 0x0 DUP1 PUSH1 0x3 PUSH1 0x0 DUP5 PUSH20 0xFFFFFFFFFFFFFFFFFFFFFFFFFFFFFFFFFFFFFFFF AND PUSH20 0xFFFFFFFFFFFFFFFFFFFFFFFFFFFFFFFFFFFFFFFF AND DUP2 MSTORE PUSH1 0x20 ADD SWAP1 DUP2 MSTORE PUSH1 0x20 ADD PUSH1 0x0 KECCAK256 PUSH1 0x1 ADD PUSH1 0x14 SWAP1 SLOAD SWAP1 PUSH2 0x100 EXP SWAP1 DIV PUSH1 0xFF AND SWAP1 POP PUSH1 0x0 PUSH1 0x1 PUSH1 0x0 DUP6 PUSH20 0xFFFFFFFFFFFFFFFFFFFFFFFFFFFFFFFFFFFFFFFF AND PUSH20 0xFFFFFFFFFFFFFFFFFFFFFFFFFFFFFFFFFFFFFFFF AND DUP2 MSTORE PUSH1 0x20 ADD SWAP1 DUP2 MSTORE PUSH1 0x20 ADD PUSH1 0x0 KECCAK256 PUSH1 0x1 ADD PUSH1 0x14 SWAP1 SLOAD SWAP1 PUSH2 0x100 EXP SWAP1 DIV PUSH1 0xFF AND SWAP1 POP DUP2 ISZERO DUP1 ISZERO PUSH2 0x2006 JUMPI POP DUP1 ISZERO JUMPDEST ISZERO PUSH2 0x2016 JUMPI PUSH1 0x0 SWAP3 POP POP POP PUSH2 0x201D JUMP JUMPDEST PUSH1 0x1 SWAP3 POP POP POP JUMPDEST SWAP2 SWAP1 POP JUMP JUMPDEST PUSH1 0x60 PUSH1 0x0 PUSH2 0x202F DUP4 PUSH2 0x1771 JUMP JUMPDEST SWAP1 POP PUSH1 0x0 DUP2 PUSH8 0xFFFFFFFFFFFFFFFF DUP2 GT ISZERO PUSH2 0x204D JUMPI PUSH2 0x204C PUSH2 0x29ED JUMP JUMPDEST JUMPDEST PUSH1 0x40 MLOAD SWAP1 DUP1 DUP3 MSTORE DUP1 PUSH1 0x20 MUL PUSH1 0x20 ADD DUP3 ADD PUSH1 0x40 MSTORE DUP1 ISZERO PUSH2 0x2080 JUMPI DUP2 PUSH1 0x20 ADD JUMPDEST PUSH1 0x60 DUP2 MSTORE PUSH1 0x20 ADD SWAP1 PUSH1 0x1 SWAP1 SUB SWAP1 DUP2 PUSH2 0x206B JUMPI SWAP1 POP JUMPDEST POP SWAP1 POP PUSH1 0x0 DUP1 JUMPDEST PUSH1 0x6 DUP1 SLOAD SWAP1 POP DUP2 LT ISZERO PUSH2 0x2486 JUMPI PUSH1 0x0 PUSH1 0x5 PUSH1 0x6 DUP4 DUP2 SLOAD DUP2 LT PUSH2 0x20AC JUMPI PUSH2 0x20AB PUSH2 0x3858 JUMP JUMPDEST JUMPDEST SWAP1 PUSH1 0x0 MSTORE PUSH1 0x20 PUSH1 0x0 KECCAK256 ADD PUSH1 0x40 MLOAD PUSH2 0x20C3 SWAP2 SWAP1 PUSH2 0x390A JUMP JUMPDEST SWAP1 DUP2 MSTORE PUSH1 0x20 ADD PUSH1 0x40 MLOAD DUP1 SWAP2 SUB SWAP1 KECCAK256 PUSH1 0x40 MLOAD DUP1 PUSH2 0x100 ADD PUSH1 0x40 MSTORE SWAP1 DUP2 PUSH1 0x0 DUP3 ADD DUP1 SLOAD PUSH2 0x20ED SWAP1 PUSH2 0x30D9 JUMP JUMPDEST DUP1 PUSH1 0x1F ADD PUSH1 0x20 DUP1 SWAP2 DIV MUL PUSH1 0x20 ADD PUSH1 0x40 MLOAD SWAP1 DUP2 ADD PUSH1 0x40 MSTORE DUP1 SWAP3 SWAP2 SWAP1 DUP2 DUP2 MSTORE PUSH1 0x20 ADD DUP3 DUP1 SLOAD PUSH2 0x2119 SWAP1 PUSH2 0x30D9 JUMP JUMPDEST DUP1 ISZERO PUSH2 0x2166 JUMPI DUP1 PUSH1 0x1F LT PUSH2 0x213B JUMPI PUSH2 0x100 DUP1 DUP4 SLOAD DIV MUL DUP4 MSTORE SWAP2 PUSH1 0x20 ADD SWAP2 PUSH2 0x2166 JUMP JUMPDEST DUP3 ADD SWAP2 SWAP1 PUSH1 0x0 MSTORE PUSH1 0x20 PUSH1 0x0 KECCAK256 SWAP1 JUMPDEST DUP2 SLOAD DUP2 MSTORE SWAP1 PUSH1 0x1 ADD SWAP1 PUSH1 0x20 ADD DUP1 DUP4 GT PUSH2 0x2149 JUMPI DUP3 SWAP1 SUB PUSH1 0x1F AND DUP3 ADD SWAP2 JUMPDEST POP POP POP POP POP DUP2 MSTORE PUSH1 0x20 ADD PUSH1 0x1 DUP3 ADD PUSH1 0x0 SWAP1 SLOAD SWAP1 PUSH2 0x100 EXP SWAP1 DIV PUSH20 0xFFFFFFFFFFFFFFFFFFFFFFFFFFFFFFFFFFFFFFFF AND PUSH20 0xFFFFFFFFFFFFFFFFFFFFFFFFFFFFFFFFFFFFFFFF AND PUSH20 0xFFFFFFFFFFFFFFFFFFFFFFFFFFFFFFFFFFFFFFFF AND DUP2 MSTORE PUSH1 0x20 ADD PUSH1 0x2 DUP3 ADD PUSH1 0x0 SWAP1 SLOAD SWAP1 PUSH2 0x100 EXP SWAP1 DIV PUSH20 0xFFFFFFFFFFFFFFFFFFFFFFFFFFFFFFFFFFFFFFFF AND PUSH20 0xFFFFFFFFFFFFFFFFFFFFFFFFFFFFFFFFFFFFFFFF AND PUSH20 0xFFFFFFFFFFFFFFFFFFFFFFFFFFFFFFFFFFFFFFFF AND DUP2 MSTORE PUSH1 0x20 ADD PUSH1 0x3 DUP3 ADD DUP1 SLOAD PUSH2 0x222B SWAP1 PUSH2 0x30D9 JUMP JUMPDEST DUP1 PUSH1 0x1F ADD PUSH1 0x20 DUP1 SWAP2 DIV MUL PUSH1 0x20 ADD PUSH1 0x40 MLOAD SWAP1 DUP2 ADD PUSH1 0x40 MSTORE DUP1 SWAP3 SWAP2 SWAP1 DUP2 DUP2 MSTORE PUSH1 0x20 ADD DUP3 DUP1 SLOAD PUSH2 0x2257 SWAP1 PUSH2 0x30D9 JUMP JUMPDEST DUP1 ISZERO PUSH2 0x22A4 JUMPI DUP1 PUSH1 0x1F LT PUSH2 0x2279 JUMPI PUSH2 0x100 DUP1 DUP4 SLOAD DIV MUL DUP4 MSTORE SWAP2 PUSH1 0x20 ADD SWAP2 PUSH2 0x22A4 JUMP JUMPDEST DUP3 ADD SWAP2 SWAP1 PUSH1 0x0 MSTORE PUSH1 0x20 PUSH1 0x0 KECCAK256 SWAP1 JUMPDEST DUP2 SLOAD DUP2 MSTORE SWAP1 PUSH1 0x1 ADD SWAP1 PUSH1 0x20 ADD DUP1 DUP4 GT PUSH2 0x2287 JUMPI DUP3 SWAP1 SUB PUSH1 0x1F AND DUP3 ADD SWAP2 JUMPDEST POP POP POP POP POP DUP2 MSTORE PUSH1 0x20 ADD PUSH1 0x4 DUP3 ADD DUP1 SLOAD PUSH2 0x22BD SWAP1 PUSH2 0x30D9 JUMP JUMPDEST DUP1 PUSH1 0x1F ADD PUSH1 0x20 DUP1 SWAP2 DIV MUL PUSH1 0x20 ADD PUSH1 0x40 MLOAD SWAP1 DUP2 ADD PUSH1 0x40 MSTORE DUP1 SWAP3 SWAP2 SWAP1 DUP2 DUP2 MSTORE PUSH1 0x20 ADD DUP3 DUP1 SLOAD PUSH2 0x22E9 SWAP1 PUSH2 0x30D9 JUMP JUMPDEST DUP1 ISZERO PUSH2 0x2336 JUMPI DUP1 PUSH1 0x1F LT PUSH2 0x230B JUMPI PUSH2 0x100 DUP1 DUP4 SLOAD DIV MUL DUP4 MSTORE SWAP2 PUSH1 0x20 ADD SWAP2 PUSH2 0x2336 JUMP JUMPDEST DUP3 ADD SWAP2 SWAP1 PUSH1 0x0 MSTORE PUSH1 0x20 PUSH1 0x0 KECCAK256 SWAP1 JUMPDEST DUP2 SLOAD DUP2 MSTORE SWAP1 PUSH1 0x1 ADD SWAP1 PUSH1 0x20 ADD DUP1 DUP4 GT PUSH2 0x2319 JUMPI DUP3 SWAP1 SUB PUSH1 0x1F AND DUP3 ADD SWAP2 JUMPDEST POP POP POP POP POP DUP2 MSTORE PUSH1 0x20 ADD PUSH1 0x5 DUP3 ADD DUP1 SLOAD PUSH2 0x234F SWAP1 PUSH2 0x30D9 JUMP JUMPDEST DUP1 PUSH1 0x1F ADD PUSH1 0x20 DUP1 SWAP2 DIV MUL PUSH1 0x20 ADD PUSH1 0x40 MLOAD SWAP1 DUP2 ADD PUSH1 0x40 MSTORE DUP1 SWAP3 SWAP2 SWAP1 DUP2 DUP2 MSTORE PUSH1 0x20 ADD DUP3 DUP1 SLOAD PUSH2 0x237B SWAP1 PUSH2 0x30D9 JUMP JUMPDEST DUP1 ISZERO PUSH2 0x23C8 JUMPI DUP1 PUSH1 0x1F LT PUSH2 0x239D JUMPI PUSH2 0x100 DUP1 DUP4 SLOAD DIV MUL DUP4 MSTORE SWAP2 PUSH1 0x20 ADD SWAP2 PUSH2 0x23C8 JUMP JUMPDEST DUP3 ADD SWAP2 SWAP1 PUSH1 0x0 MSTORE PUSH1 0x20 PUSH1 0x0 KECCAK256 SWAP1 JUMPDEST DUP2 SLOAD DUP2 MSTORE SWAP1 PUSH1 0x1 ADD SWAP1 PUSH1 0x20 ADD DUP1 DUP4 GT PUSH2 0x23AB JUMPI DUP3 SWAP1 SUB PUSH1 0x1F AND DUP3 ADD SWAP2 JUMPDEST POP POP POP POP POP DUP2 MSTORE PUSH1 0x20 ADD PUSH1 0x6 DUP3 ADD PUSH1 0x0 SWAP1 SLOAD SWAP1 PUSH2 0x100 EXP SWAP1 DIV PUSH1 0xFF AND ISZERO ISZERO ISZERO ISZERO DUP2 MSTORE PUSH1 0x20 ADD PUSH1 0x6 DUP3 ADD PUSH1 0x1 SWAP1 SLOAD SWAP1 PUSH2 0x100 EXP SWAP1 DIV PUSH1 0xFF AND ISZERO ISZERO ISZERO ISZERO DUP2 MSTORE POP POP SWAP1 POP DUP7 PUSH20 0xFFFFFFFFFFFFFFFFFFFFFFFFFFFFFFFFFFFFFFFF AND DUP2 PUSH1 0x20 ADD MLOAD PUSH20 0xFFFFFFFFFFFFFFFFFFFFFFFFFFFFFFFFFFFFFFFF AND SUB PUSH2 0x2472 JUMPI DUP1 PUSH1 0x60 ADD MLOAD DUP5 DUP5 DUP2 MLOAD DUP2 LT PUSH2 0x2458 JUMPI PUSH2 0x2457 PUSH2 0x3858 JUMP JUMPDEST JUMPDEST PUSH1 0x20 MUL PUSH1 0x20 ADD ADD DUP2 SWAP1 MSTORE POP DUP3 DUP1 PUSH2 0x246E SWAP1 PUSH2 0x3950 JUMP JUMPDEST SWAP4 POP POP JUMPDEST POP DUP1 DUP1 PUSH2 0x247E SWAP1 PUSH2 0x3950 JUMP JUMPDEST SWAP2 POP POP PUSH2 0x2087 JUMP JUMPDEST POP DUP2 SWAP4 POP POP POP POP SWAP2 SWAP1 POP JUMP JUMPDEST PUSH1 0x0 DUP1 PUSH1 0x3 PUSH1 0x0 DUP5 PUSH20 0xFFFFFFFFFFFFFFFFFFFFFFFFFFFFFFFFFFFFFFFF AND PUSH20 0xFFFFFFFFFFFFFFFFFFFFFFFFFFFFFFFFFFFFFFFF AND DUP2 MSTORE PUSH1 0x20 ADD SWAP1 DUP2 MSTORE PUSH1 0x20 ADD PUSH1 0x0 KECCAK256 PUSH1 0x1 ADD PUSH1 0x14 SWAP1 SLOAD SWAP1 PUSH2 0x100 EXP SWAP1 DIV PUSH1 0xFF AND SWAP1 POP DUP1 SWAP2 POP POP SWAP2 SWAP1 POP JUMP JUMPDEST PUSH1 0x0 DUP1 PUSH1 0x1 PUSH1 0x0 DUP5 PUSH20 0xFFFFFFFFFFFFFFFFFFFFFFFFFFFFFFFFFFFFFFFF AND PUSH20 0xFFFFFFFFFFFFFFFFFFFFFFFFFFFFFFFFFFFFFFFF AND DUP2 MSTORE PUSH1 0x20 ADD SWAP1 DUP2 MSTORE PUSH1 0x20 ADD PUSH1 0x0 KECCAK256 PUSH1 0x1 ADD PUSH1 0x14 SWAP1 SLOAD SWAP1 PUSH2 0x100 EXP SWAP1 DIV PUSH1 0xFF AND SWAP1 POP DUP1 SWAP2 POP POP SWAP2 SWAP1 POP JUMP JUMPDEST PUSH1 0x60 PUSH1 0x0 PUSH2 0x255B DUP4 PUSH2 0x1B61 JUMP JUMPDEST SWAP1 POP PUSH1 0x0 DUP2 PUSH8 0xFFFFFFFFFFFFFFFF DUP2 GT ISZERO PUSH2 0x2579 JUMPI PUSH2 0x2578 PUSH2 0x29ED JUMP JUMPDEST JUMPDEST PUSH1 0x40 MLOAD SWAP1 DUP1 DUP3 MSTORE DUP1 PUSH1 0x20 MUL PUSH1 0x20 ADD DUP3 ADD PUSH1 0x40 MSTORE DUP1 ISZERO PUSH2 0x25AC JUMPI DUP2 PUSH1 0x20 ADD JUMPDEST PUSH1 0x60 DUP2 MSTORE PUSH1 0x20 ADD SWAP1 PUSH1 0x1 SWAP1 SUB SWAP1 DUP2 PUSH2 0x2597 JUMPI SWAP1 POP JUMPDEST POP SWAP1 POP PUSH1 0x0 DUP1 JUMPDEST PUSH1 0x6 DUP1 SLOAD SWAP1 POP DUP2 LT ISZERO PUSH2 0x29B2 JUMPI PUSH1 0x0 PUSH1 0x5 PUSH1 0x6 DUP4 DUP2 SLOAD DUP2 LT PUSH2 0x25D8 JUMPI PUSH2 0x25D7 PUSH2 0x3858 JUMP JUMPDEST JUMPDEST SWAP1 PUSH1 0x0 MSTORE PUSH1 0x20 PUSH1 0x0 KECCAK256 ADD PUSH1 0x40 MLOAD PUSH2 0x25EF SWAP2 SWAP1 PUSH2 0x390A JUMP JUMPDEST SWAP1 DUP2 MSTORE PUSH1 0x20 ADD PUSH1 0x40 MLOAD DUP1 SWAP2 SUB SWAP1 KECCAK256 PUSH1 0x40 MLOAD DUP1 PUSH2 0x100 ADD PUSH1 0x40 MSTORE SWAP1 DUP2 PUSH1 0x0 DUP3 ADD DUP1 SLOAD PUSH2 0x2619 SWAP1 PUSH2 0x30D9 JUMP JUMPDEST DUP1 PUSH1 0x1F ADD PUSH1 0x20 DUP1 SWAP2 DIV MUL PUSH1 0x20 ADD PUSH1 0x40 MLOAD SWAP1 DUP2 ADD PUSH1 0x40 MSTORE DUP1 SWAP3 SWAP2 SWAP1 DUP2 DUP2 MSTORE PUSH1 0x20 ADD DUP3 DUP1 SLOAD PUSH2 0x2645 SWAP1 PUSH2 0x30D9 JUMP JUMPDEST DUP1 ISZERO PUSH2 0x2692 JUMPI DUP1 PUSH1 0x1F LT PUSH2 0x2667 JUMPI PUSH2 0x100 DUP1 DUP4 SLOAD DIV MUL DUP4 MSTORE SWAP2 PUSH1 0x20 ADD SWAP2 PUSH2 0x2692 JUMP JUMPDEST DUP3 ADD SWAP2 SWAP1 PUSH1 0x0 MSTORE PUSH1 0x20 PUSH1 0x0 KECCAK256 SWAP1 JUMPDEST DUP2 SLOAD DUP2 MSTORE SWAP1 PUSH1 0x1 ADD SWAP1 PUSH1 0x20 ADD DUP1 DUP4 GT PUSH2 0x2675 JUMPI DUP3 SWAP1 SUB PUSH1 0x1F AND DUP3 ADD SWAP2 JUMPDEST POP POP POP POP POP DUP2 MSTORE PUSH1 0x20 ADD PUSH1 0x1 DUP3 ADD PUSH1 0x0 SWAP1 SLOAD SWAP1 PUSH2 0x100 EXP SWAP1 DIV PUSH20 0xFFFFFFFFFFFFFFFFFFFFFFFFFFFFFFFFFFFFFFFF AND PUSH20 0xFFFFFFFFFFFFFFFFFFFFFFFFFFFFFFFFFFFFFFFF AND PUSH20 0xFFFFFFFFFFFFFFFFFFFFFFFFFFFFFFFFFFFFFFFF AND DUP2 MSTORE PUSH1 0x20 ADD PUSH1 0x2 DUP3 ADD PUSH1 0x0 SWAP1 SLOAD SWAP1 PUSH2 0x100 EXP SWAP1 DIV PUSH20 0xFFFFFFFFFFFFFFFFFFFFFFFFFFFFFFFFFFFFFFFF AND PUSH20 0xFFFFFFFFFFFFFFFFFFFFFFFFFFFFFFFFFFFFFFFF AND PUSH20 0xFFFFFFFFFFFFFFFFFFFFFFFFFFFFFFFFFFFFFFFF AND DUP2 MSTORE PUSH1 0x20 ADD PUSH1 0x3 DUP3 ADD DUP1 SLOAD PUSH2 0x2757 SWAP1 PUSH2 0x30D9 JUMP JUMPDEST DUP1 PUSH1 0x1F ADD PUSH1 0x20 DUP1 SWAP2 DIV MUL PUSH1 0x20 ADD PUSH1 0x40 MLOAD SWAP1 DUP2 ADD PUSH1 0x40 MSTORE DUP1 SWAP3 SWAP2 SWAP1 DUP2 DUP2 MSTORE PUSH1 0x20 ADD DUP3 DUP1 SLOAD PUSH2 0x2783 SWAP1 PUSH2 0x30D9 JUMP JUMPDEST DUP1 ISZERO PUSH2 0x27D0 JUMPI DUP1 PUSH1 0x1F LT PUSH2 0x27A5 JUMPI PUSH2 0x100 DUP1 DUP4 SLOAD DIV MUL DUP4 MSTORE SWAP2 PUSH1 0x20 ADD SWAP2 PUSH2 0x27D0 JUMP JUMPDEST DUP3 ADD SWAP2 SWAP1 PUSH1 0x0 MSTORE PUSH1 0x20 PUSH1 0x0 KECCAK256 SWAP1 JUMPDEST DUP2 SLOAD DUP2 MSTORE SWAP1 PUSH1 0x1 ADD SWAP1 PUSH1 0x20 ADD DUP1 DUP4 GT PUSH2 0x27B3 JUMPI DUP3 SWAP1 SUB PUSH1 0x1F AND DUP3 ADD SWAP2 JUMPDEST POP POP POP POP POP DUP2 MSTORE PUSH1 0x20 ADD PUSH1 0x4 DUP3 ADD DUP1 SLOAD PUSH2 0x27E9 SWAP1 PUSH2 0x30D9 JUMP JUMPDEST DUP1 PUSH1 0x1F ADD PUSH1 0x20 DUP1 SWAP2 DIV MUL PUSH1 0x20 ADD PUSH1 0x40 MLOAD SWAP1 DUP2 ADD PUSH1 0x40 MSTORE DUP1 SWAP3 SWAP2 SWAP1 DUP2 DUP2 MSTORE PUSH1 0x20 ADD DUP3 DUP1 SLOAD PUSH2 0x2815 SWAP1 PUSH2 0x30D9 JUMP JUMPDEST DUP1 ISZERO PUSH2 0x2862 JUMPI DUP1 PUSH1 0x1F LT PUSH2 0x2837 JUMPI PUSH2 0x100 DUP1 DUP4 SLOAD DIV MUL DUP4 MSTORE SWAP2 PUSH1 0x20 ADD SWAP2 PUSH2 0x2862 JUMP JUMPDEST DUP3 ADD SWAP2 SWAP1 PUSH1 0x0 MSTORE PUSH1 0x20 PUSH1 0x0 KECCAK256 SWAP1 JUMPDEST DUP2 SLOAD DUP2 MSTORE SWAP1 PUSH1 0x1 ADD SWAP1 PUSH1 0x20 ADD DUP1 DUP4 GT PUSH2 0x2845 JUMPI DUP3 SWAP1 SUB PUSH1 0x1F AND DUP3 ADD SWAP2 JUMPDEST POP POP POP POP POP DUP2 MSTORE PUSH1 0x20 ADD PUSH1 0x5 DUP3 ADD DUP1 SLOAD PUSH2 0x287B SWAP1 PUSH2 0x30D9 JUMP JUMPDEST DUP1 PUSH1 0x1F ADD PUSH1 0x20 DUP1 SWAP2 DIV MUL PUSH1 0x20 ADD PUSH1 0x40 MLOAD SWAP1 DUP2 ADD PUSH1 0x40 MSTORE DUP1 SWAP3 SWAP2 SWAP1 DUP2 DUP2 MSTORE PUSH1 0x20 ADD DUP3 DUP1 SLOAD PUSH2 0x28A7 SWAP1 PUSH2 0x30D9 JUMP JUMPDEST DUP1 ISZERO PUSH2 0x28F4 JUMPI DUP1 PUSH1 0x1F LT PUSH2 0x28C9 JUMPI PUSH2 0x100 DUP1 DUP4 SLOAD DIV MUL DUP4 MSTORE SWAP2 PUSH1 0x20 ADD SWAP2 PUSH2 0x28F4 JUMP JUMPDEST DUP3 ADD SWAP2 SWAP1 PUSH1 0x0 MSTORE PUSH1 0x20 PUSH1 0x0 KECCAK256 SWAP1 JUMPDEST DUP2 SLOAD DUP2 MSTORE SWAP1 PUSH1 0x1 ADD SWAP1 PUSH1 0x20 ADD DUP1 DUP4 GT PUSH2 0x28D7 JUMPI DUP3 SWAP1 SUB PUSH1 0x1F AND DUP3 ADD SWAP2 JUMPDEST POP POP POP POP POP DUP2 MSTORE PUSH1 0x20 ADD PUSH1 0x6 DUP3 ADD PUSH1 0x0 SWAP1 SLOAD SWAP1 PUSH2 0x100 EXP SWAP1 DIV PUSH1 0xFF AND ISZERO ISZERO ISZERO ISZERO DUP2 MSTORE PUSH1 0x20 ADD PUSH1 0x6 DUP3 ADD PUSH1 0x1 SWAP1 SLOAD SWAP1 PUSH2 0x100 EXP SWAP1 DIV PUSH1 0xFF AND ISZERO ISZERO ISZERO ISZERO DUP2 MSTORE POP POP SWAP1 POP DUP7 PUSH20 0xFFFFFFFFFFFFFFFFFFFFFFFFFFFFFFFFFFFFFFFF AND DUP2 PUSH1 0x40 ADD MLOAD PUSH20 0xFFFFFFFFFFFFFFFFFFFFFFFFFFFFFFFFFFFFFFFF AND SUB PUSH2 0x299E JUMPI DUP1 PUSH1 0x60 ADD MLOAD DUP5 DUP5 DUP2 MLOAD DUP2 LT PUSH2 0x2984 JUMPI PUSH2 0x2983 PUSH2 0x3858 JUMP JUMPDEST JUMPDEST PUSH1 0x20 MUL PUSH1 0x20 ADD ADD DUP2 SWAP1 MSTORE POP DUP3 DUP1 PUSH2 0x299A SWAP1 PUSH2 0x3950 JUMP JUMPDEST SWAP4 POP POP JUMPDEST POP DUP1 DUP1 PUSH2 0x29AA SWAP1 PUSH2 0x3950 JUMP JUMPDEST SWAP2 POP POP PUSH2 0x25B3 JUMP JUMPDEST POP DUP2 SWAP4 POP POP POP POP SWAP2 SWAP1 POP JUMP JUMPDEST PUSH1 0x0 PUSH1 0x40 MLOAD SWAP1 POP SWAP1 JUMP JUMPDEST PUSH1 0x0 DUP1 REVERT JUMPDEST PUSH1 0x0 DUP1 REVERT JUMPDEST PUSH1 0x0 DUP1 REVERT JUMPDEST PUSH1 0x0 DUP1 REVERT JUMPDEST PUSH1 0x0 PUSH1 0x1F NOT PUSH1 0x1F DUP4 ADD AND SWAP1 POP SWAP2 SWAP1 POP JUMP JUMPDEST PUSH32 0x4E487B7100000000000000000000000000000000000000000000000000000000 PUSH1 0x0 MSTORE PUSH1 0x41 PUSH1 0x4 MSTORE PUSH1 0x24 PUSH1 0x0 REVERT JUMPDEST PUSH2 0x2A25 DUP3 PUSH2 0x29DC JUMP JUMPDEST DUP2 ADD DUP2 DUP2 LT PUSH8 0xFFFFFFFFFFFFFFFF DUP3 GT OR ISZERO PUSH2 0x2A44 JUMPI PUSH2 0x2A43 PUSH2 0x29ED JUMP JUMPDEST JUMPDEST DUP1 PUSH1 0x40 MSTORE POP POP POP JUMP JUMPDEST PUSH1 0x0 PUSH2 0x2A57 PUSH2 0x29BE JUMP JUMPDEST SWAP1 POP PUSH2 0x2A63 DUP3 DUP3 PUSH2 0x2A1C JUMP JUMPDEST SWAP2 SWAP1 POP JUMP JUMPDEST PUSH1 0x0 PUSH8 0xFFFFFFFFFFFFFFFF DUP3 GT ISZERO PUSH2 0x2A83 JUMPI PUSH2 0x2A82 PUSH2 0x29ED JUMP JUMPDEST JUMPDEST PUSH2 0x2A8C DUP3 PUSH2 0x29DC JUMP JUMPDEST SWAP1 POP PUSH1 0x20 DUP2 ADD SWAP1 POP SWAP2 SWAP1 POP JUMP JUMPDEST DUP3 DUP2 DUP4 CALLDATACOPY PUSH1 0x0 DUP4 DUP4 ADD MSTORE POP POP POP JUMP JUMPDEST PUSH1 0x0 PUSH2 0x2ABB PUSH2 0x2AB6 DUP5 PUSH2 0x2A68 JUMP JUMPDEST PUSH2 0x2A4D JUMP JUMPDEST SWAP1 POP DUP3 DUP2 MSTORE PUSH1 0x20 DUP2 ADD DUP5 DUP5 DUP5 ADD GT ISZERO PUSH2 0x2AD7 JUMPI PUSH2 0x2AD6 PUSH2 0x29D7 JUMP JUMPDEST JUMPDEST PUSH2 0x2AE2 DUP5 DUP3 DUP6 PUSH2 0x2A99 JUMP JUMPDEST POP SWAP4 SWAP3 POP POP POP JUMP JUMPDEST PUSH1 0x0 DUP3 PUSH1 0x1F DUP4 ADD SLT PUSH2 0x2AFF JUMPI PUSH2 0x2AFE PUSH2 0x29D2 JUMP JUMPDEST JUMPDEST DUP2 CALLDATALOAD PUSH2 0x2B0F DUP5 DUP3 PUSH1 0x20 DUP7 ADD PUSH2 0x2AA8 JUMP JUMPDEST SWAP2 POP POP SWAP3 SWAP2 POP POP JUMP JUMPDEST PUSH1 0x0 PUSH20 0xFFFFFFFFFFFFFFFFFFFFFFFFFFFFFFFFFFFFFFFF DUP3 AND SWAP1 POP SWAP2 SWAP1 POP JUMP JUMPDEST PUSH1 0x0 PUSH2 0x2B43 DUP3 PUSH2 0x2B18 JUMP JUMPDEST SWAP1 POP SWAP2 SWAP1 POP JUMP JUMPDEST PUSH2 0x2B53 DUP2 PUSH2 0x2B38 JUMP JUMPDEST DUP2 EQ PUSH2 0x2B5E JUMPI PUSH1 0x0 DUP1 REVERT JUMPDEST POP JUMP JUMPDEST PUSH1 0x0 DUP2 CALLDATALOAD SWAP1 POP PUSH2 0x2B70 DUP2 PUSH2 0x2B4A JUMP JUMPDEST SWAP3 SWAP2 POP POP JUMP JUMPDEST PUSH1 0x0 DUP1 PUSH1 0x0 DUP1 PUSH1 0x80 DUP6 DUP8 SUB SLT ISZERO PUSH2 0x2B90 JUMPI PUSH2 0x2B8F PUSH2 0x29C8 JUMP JUMPDEST JUMPDEST PUSH1 0x0 DUP6 ADD CALLDATALOAD PUSH8 0xFFFFFFFFFFFFFFFF DUP2 GT ISZERO PUSH2 0x2BAE JUMPI PUSH2 0x2BAD PUSH2 0x29CD JUMP JUMPDEST JUMPDEST PUSH2 0x2BBA DUP8 DUP3 DUP9 ADD PUSH2 0x2AEA JUMP JUMPDEST SWAP5 POP POP PUSH1 0x20 PUSH2 0x2BCB DUP8 DUP3 DUP9 ADD PUSH2 0x2B61 JUMP JUMPDEST SWAP4 POP POP PUSH1 0x40 PUSH2 0x2BDC DUP8 DUP3 DUP9 ADD PUSH2 0x2B61 JUMP JUMPDEST SWAP3 POP POP PUSH1 0x60 DUP6 ADD CALLDATALOAD PUSH8 0xFFFFFFFFFFFFFFFF DUP2 GT ISZERO PUSH2 0x2BFD JUMPI PUSH2 0x2BFC PUSH2 0x29CD JUMP JUMPDEST JUMPDEST PUSH2 0x2C09 DUP8 DUP3 DUP9 ADD PUSH2 0x2AEA JUMP JUMPDEST SWAP2 POP POP SWAP3 SWAP6 SWAP2 SWAP5 POP SWAP3 POP JUMP JUMPDEST PUSH1 0x0 DUP2 ISZERO ISZERO SWAP1 POP SWAP2 SWAP1 POP JUMP JUMPDEST PUSH2 0x2C2A DUP2 PUSH2 0x2C15 JUMP JUMPDEST DUP3 MSTORE POP POP JUMP JUMPDEST PUSH1 0x0 PUSH1 0x20 DUP3 ADD SWAP1 POP PUSH2 0x2C45 PUSH1 0x0 DUP4 ADD DUP5 PUSH2 0x2C21 JUMP JUMPDEST SWAP3 SWAP2 POP POP JUMP JUMPDEST PUSH1 0x0 DUP2 SWAP1 POP SWAP2 SWAP1 POP JUMP JUMPDEST PUSH2 0x2C5E DUP2 PUSH2 0x2C4B JUMP JUMPDEST DUP3 MSTORE POP POP JUMP JUMPDEST PUSH1 0x0 PUSH1 0x20 DUP3 ADD SWAP1 POP PUSH2 0x2C79 PUSH1 0x0 DUP4 ADD DUP5 PUSH2 0x2C55 JUMP JUMPDEST SWAP3 SWAP2 POP POP JUMP JUMPDEST PUSH1 0x0 PUSH1 0x20 DUP3 DUP5 SUB SLT ISZERO PUSH2 0x2C95 JUMPI PUSH2 0x2C94 PUSH2 0x29C8 JUMP JUMPDEST JUMPDEST PUSH1 0x0 DUP3 ADD CALLDATALOAD PUSH8 0xFFFFFFFFFFFFFFFF DUP2 GT ISZERO PUSH2 0x2CB3 JUMPI PUSH2 0x2CB2 PUSH2 0x29CD JUMP JUMPDEST JUMPDEST PUSH2 0x2CBF DUP5 DUP3 DUP6 ADD PUSH2 0x2AEA JUMP JUMPDEST SWAP2 POP POP SWAP3 SWAP2 POP POP JUMP JUMPDEST PUSH1 0x0 DUP2 MLOAD SWAP1 POP SWAP2 SWAP1 POP JUMP JUMPDEST PUSH1 0x0 DUP3 DUP3 MSTORE PUSH1 0x20 DUP3 ADD SWAP1 POP SWAP3 SWAP2 POP POP JUMP JUMPDEST PUSH1 0x0 DUP2 SWAP1 POP PUSH1 0x20 DUP3 ADD SWAP1 POP SWAP2 SWAP1 POP JUMP JUMPDEST PUSH1 0x0 DUP2 MLOAD SWAP1 POP SWAP2 SWAP1 POP JUMP JUMPDEST PUSH1 0x0 DUP3 DUP3 MSTORE PUSH1 0x20 DUP3 ADD SWAP1 POP SWAP3 SWAP2 POP POP JUMP JUMPDEST PUSH1 0x0 JUMPDEST DUP4 DUP2 LT ISZERO PUSH2 0x2D2E JUMPI DUP1 DUP3 ADD MLOAD DUP2 DUP5 ADD MSTORE PUSH1 0x20 DUP2 ADD SWAP1 POP PUSH2 0x2D13 JUMP JUMPDEST PUSH1 0x0 DUP5 DUP5 ADD MSTORE POP POP POP POP JUMP JUMPDEST PUSH1 0x0 PUSH2 0x2D45 DUP3 PUSH2 0x2CF4 JUMP JUMPDEST PUSH2 0x2D4F DUP2 DUP6 PUSH2 0x2CFF JUMP JUMPDEST SWAP4 POP PUSH2 0x2D5F DUP2 DUP6 PUSH1 0x20 DUP7 ADD PUSH2 0x2D10 JUMP JUMPDEST PUSH2 0x2D68 DUP2 PUSH2 0x29DC JUMP JUMPDEST DUP5 ADD SWAP2 POP POP SWAP3 SWAP2 POP POP JUMP JUMPDEST PUSH1 0x0 PUSH2 0x2D7F DUP4 DUP4 PUSH2 0x2D3A JUMP JUMPDEST SWAP1 POP SWAP3 SWAP2 POP POP JUMP JUMPDEST PUSH1 0x0 PUSH1 0x20 DUP3 ADD SWAP1 POP SWAP2 SWAP1 POP JUMP JUMPDEST PUSH1 0x0 PUSH2 0x2D9F DUP3 PUSH2 0x2CC8 JUMP JUMPDEST PUSH2 0x2DA9 DUP2 DUP6 PUSH2 0x2CD3 JUMP JUMPDEST SWAP4 POP DUP4 PUSH1 0x20 DUP3 MUL DUP6 ADD PUSH2 0x2DBB DUP6 PUSH2 0x2CE4 JUMP JUMPDEST DUP1 PUSH1 0x0 JUMPDEST DUP6 DUP2 LT ISZERO PUSH2 0x2DF7 JUMPI DUP5 DUP5 SUB DUP10 MSTORE DUP2 MLOAD PUSH2 0x2DD8 DUP6 DUP3 PUSH2 0x2D73 JUMP JUMPDEST SWAP5 POP PUSH2 0x2DE3 DUP4 PUSH2 0x2D87 JUMP JUMPDEST SWAP3 POP PUSH1 0x20 DUP11 ADD SWAP10 POP POP PUSH1 0x1 DUP2 ADD SWAP1 POP PUSH2 0x2DBF JUMP JUMPDEST POP DUP3 SWAP8 POP DUP8 SWAP6 POP POP POP POP POP POP SWAP3 SWAP2 POP POP JUMP JUMPDEST PUSH1 0x0 PUSH1 0x20 DUP3 ADD SWAP1 POP DUP2 DUP2 SUB PUSH1 0x0 DUP4 ADD MSTORE PUSH2 0x2E23 DUP2 DUP5 PUSH2 0x2D94 JUMP JUMPDEST SWAP1 POP SWAP3 SWAP2 POP POP JUMP JUMPDEST PUSH1 0x0 PUSH1 0x20 DUP3 DUP5 SUB SLT ISZERO PUSH2 0x2E41 JUMPI PUSH2 0x2E40 PUSH2 0x29C8 JUMP JUMPDEST JUMPDEST PUSH1 0x0 PUSH2 0x2E4F DUP5 DUP3 DUP6 ADD PUSH2 0x2B61 JUMP JUMPDEST SWAP2 POP POP SWAP3 SWAP2 POP POP JUMP JUMPDEST PUSH2 0x2E61 DUP2 PUSH2 0x2B38 JUMP JUMPDEST DUP3 MSTORE POP POP JUMP JUMPDEST PUSH1 0x0 DUP3 DUP3 MSTORE PUSH1 0x20 DUP3 ADD SWAP1 POP SWAP3 SWAP2 POP POP JUMP JUMPDEST PUSH1 0x0 PUSH2 0x2E83 DUP3 PUSH2 0x2CF4 JUMP JUMPDEST PUSH2 0x2E8D DUP2 DUP6 PUSH2 0x2E67 JUMP JUMPDEST SWAP4 POP PUSH2 0x2E9D DUP2 DUP6 PUSH1 0x20 DUP7 ADD PUSH2 0x2D10 JUMP JUMPDEST PUSH2 0x2EA6 DUP2 PUSH2 0x29DC JUMP JUMPDEST DUP5 ADD SWAP2 POP POP SWAP3 SWAP2 POP POP JUMP JUMPDEST PUSH1 0x0 PUSH1 0x60 DUP3 ADD SWAP1 POP PUSH2 0x2EC6 PUSH1 0x0 DUP4 ADD DUP7 PUSH2 0x2E58 JUMP JUMPDEST DUP2 DUP2 SUB PUSH1 0x20 DUP4 ADD MSTORE PUSH2 0x2ED8 DUP2 DUP6 PUSH2 0x2E78 JUMP JUMPDEST SWAP1 POP DUP2 DUP2 SUB PUSH1 0x40 DUP4 ADD MSTORE PUSH2 0x2EEC DUP2 DUP5 PUSH2 0x2E78 JUMP JUMPDEST SWAP1 POP SWAP5 SWAP4 POP POP POP POP JUMP JUMPDEST PUSH1 0x0 DUP1 PUSH1 0x0 DUP1 PUSH1 0x0 PUSH1 0xA0 DUP7 DUP9 SUB SLT ISZERO PUSH2 0x2F12 JUMPI PUSH2 0x2F11 PUSH2 0x29C8 JUMP JUMPDEST JUMPDEST PUSH1 0x0 DUP7 ADD CALLDATALOAD PUSH8 0xFFFFFFFFFFFFFFFF DUP2 GT ISZERO PUSH2 0x2F30 JUMPI PUSH2 0x2F2F PUSH2 0x29CD JUMP JUMPDEST JUMPDEST PUSH2 0x2F3C DUP9 DUP3 DUP10 ADD PUSH2 0x2AEA JUMP JUMPDEST SWAP6 POP POP PUSH1 0x20 PUSH2 0x2F4D DUP9 DUP3 DUP10 ADD PUSH2 0x2B61 JUMP JUMPDEST SWAP5 POP POP PUSH1 0x40 DUP7 ADD CALLDATALOAD PUSH8 0xFFFFFFFFFFFFFFFF DUP2 GT ISZERO PUSH2 0x2F6E JUMPI PUSH2 0x2F6D PUSH2 0x29CD JUMP JUMPDEST JUMPDEST PUSH2 0x2F7A DUP9 DUP3 DUP10 ADD PUSH2 0x2AEA JUMP JUMPDEST SWAP4 POP POP PUSH1 0x60 DUP7 ADD CALLDATALOAD PUSH8 0xFFFFFFFFFFFFFFFF DUP2 GT ISZERO PUSH2 0x2F9B JUMPI PUSH2 0x2F9A PUSH2 0x29CD JUMP JUMPDEST JUMPDEST PUSH2 0x2FA7 DUP9 DUP3 DUP10 ADD PUSH2 0x2AEA JUMP JUMPDEST SWAP3 POP POP PUSH1 0x80 DUP7 ADD CALLDATALOAD PUSH8 0xFFFFFFFFFFFFFFFF DUP2 GT ISZERO PUSH2 0x2FC8 JUMPI PUSH2 0x2FC7 PUSH2 0x29CD JUMP JUMPDEST JUMPDEST PUSH2 0x2FD4 DUP9 DUP3 DUP10 ADD PUSH2 0x2AEA JUMP JUMPDEST SWAP2 POP POP SWAP3 SWAP6 POP SWAP3 SWAP6 SWAP1 SWAP4 POP JUMP JUMPDEST PUSH1 0x0 PUSH1 0xC0 DUP3 ADD SWAP1 POP DUP2 DUP2 SUB PUSH1 0x0 DUP4 ADD MSTORE PUSH2 0x2FFB DUP2 DUP10 PUSH2 0x2E78 JUMP JUMPDEST SWAP1 POP PUSH2 0x300A PUSH1 0x20 DUP4 ADD DUP9 PUSH2 0x2E58 JUMP JUMPDEST PUSH2 0x3017 PUSH1 0x40 DUP4 ADD DUP8 PUSH2 0x2E58 JUMP JUMPDEST DUP2 DUP2 SUB PUSH1 0x60 DUP4 ADD MSTORE PUSH2 0x3029 DUP2 DUP7 PUSH2 0x2E78 JUMP JUMPDEST SWAP1 POP DUP2 DUP2 SUB PUSH1 0x80 DUP4 ADD MSTORE PUSH2 0x303D DUP2 DUP6 PUSH2 0x2E78 JUMP JUMPDEST SWAP1 POP PUSH2 0x304C PUSH1 0xA0 DUP4 ADD DUP5 PUSH2 0x2C21 JUMP JUMPDEST SWAP8 SWAP7 POP POP POP POP POP POP POP JUMP JUMPDEST PUSH1 0x0 DUP2 SWAP1 POP SWAP3 SWAP2 POP POP JUMP JUMPDEST PUSH1 0x0 PUSH2 0x306D DUP3 PUSH2 0x2CF4 JUMP JUMPDEST PUSH2 0x3077 DUP2 DUP6 PUSH2 0x3057 JUMP JUMPDEST SWAP4 POP PUSH2 0x3087 DUP2 DUP6 PUSH1 0x20 DUP7 ADD PUSH2 0x2D10 JUMP JUMPDEST DUP1 DUP5 ADD SWAP2 POP POP SWAP3 SWAP2 POP POP JUMP JUMPDEST PUSH1 0x0 PUSH2 0x309F DUP3 DUP5 PUSH2 0x3062 JUMP JUMPDEST SWAP2 POP DUP2 SWAP1 POP SWAP3 SWAP2 POP POP JUMP JUMPDEST PUSH32 0x4E487B7100000000000000000000000000000000000000000000000000000000 PUSH1 0x0 MSTORE PUSH1 0x22 PUSH1 0x4 MSTORE PUSH1 0x24 PUSH1 0x0 REVERT JUMPDEST PUSH1 0x0 PUSH1 0x2 DUP3 DIV SWAP1 POP PUSH1 0x1 DUP3 AND DUP1 PUSH2 0x30F1 JUMPI PUSH1 0x7F DUP3 AND SWAP2 POP JUMPDEST PUSH1 0x20 DUP3 LT DUP2 SUB PUSH2 0x3104 JUMPI PUSH2 0x3103 PUSH2 0x30AA JUMP JUMPDEST JUMPDEST POP SWAP2 SWAP1 POP JUMP JUMPDEST PUSH32 0x696E76616C696465206365727469666963617465207575696400000000000000 PUSH1 0x0 DUP3 ADD MSTORE POP JUMP JUMPDEST PUSH1 0x0 PUSH2 0x3140 PUSH1 0x19 DUP4 PUSH2 0x2E67 JUMP JUMPDEST SWAP2 POP PUSH2 0x314B DUP3 PUSH2 0x310A JUMP JUMPDEST PUSH1 0x20 DUP3 ADD SWAP1 POP SWAP2 SWAP1 POP JUMP JUMPDEST PUSH1 0x0 PUSH1 0x20 DUP3 ADD SWAP1 POP DUP2 DUP2 SUB PUSH1 0x0 DUP4 ADD MSTORE PUSH2 0x316F DUP2 PUSH2 0x3133 JUMP JUMPDEST SWAP1 POP SWAP2 SWAP1 POP JUMP JUMPDEST PUSH32 0x6F6E6C79206973737565722063616E20696E76616C6964617465206365727469 PUSH1 0x0 DUP3 ADD MSTORE PUSH32 0x6669636174650000000000000000000000000000000000000000000000000000 PUSH1 0x20 DUP3 ADD MSTORE POP JUMP JUMPDEST PUSH1 0x0 PUSH2 0x31D2 PUSH1 0x26 DUP4 PUSH2 0x2E67 JUMP JUMPDEST SWAP2 POP PUSH2 0x31DD DUP3 PUSH2 0x3176 JUMP JUMPDEST PUSH1 0x40 DUP3 ADD SWAP1 POP SWAP2 SWAP1 POP JUMP JUMPDEST PUSH1 0x0 PUSH1 0x20 DUP3 ADD SWAP1 POP DUP2 DUP2 SUB PUSH1 0x0 DUP4 ADD MSTORE PUSH2 0x3201 DUP2 PUSH2 0x31C5 JUMP JUMPDEST SWAP1 POP SWAP2 SWAP1 POP JUMP JUMPDEST PUSH32 0x696E76616C696420726F6C650000000000000000000000000000000000000000 PUSH1 0x0 DUP3 ADD MSTORE POP JUMP JUMPDEST PUSH1 0x0 PUSH2 0x323E PUSH1 0xC DUP4 PUSH2 0x2E67 JUMP JUMPDEST SWAP2 POP PUSH2 0x3249 DUP3 PUSH2 0x3208 JUMP JUMPDEST PUSH1 0x20 DUP3 ADD SWAP1 POP SWAP2 SWAP1 POP JUMP JUMPDEST PUSH1 0x0 PUSH1 0x20 DUP3 ADD SWAP1 POP DUP2 DUP2 SUB PUSH1 0x0 DUP4 ADD MSTORE PUSH2 0x326D DUP2 PUSH2 0x3231 JUMP JUMPDEST SWAP1 POP SWAP2 SWAP1 POP JUMP JUMPDEST PUSH32 0x6F6E6C79206973737565722063616E2069737375652063657274696669636174 PUSH1 0x0 DUP3 ADD MSTORE PUSH32 0x6573000000000000000000000000000000000000000000000000000000000000 PUSH1 0x20 DUP3 ADD MSTORE POP JUMP JUMPDEST PUSH1 0x0 PUSH2 0x32D0 PUSH1 0x22 DUP4 PUSH2 0x2E67 JUMP JUMPDEST SWAP2 POP PUSH2 0x32DB DUP3 PUSH2 0x3274 JUMP JUMPDEST PUSH1 0x40 DUP3 ADD SWAP1 POP SWAP2 SWAP1 POP JUMP JUMPDEST PUSH1 0x0 PUSH1 0x20 DUP3 ADD SWAP1 POP DUP2 DUP2 SUB PUSH1 0x0 DUP4 ADD MSTORE PUSH2 0x32FF DUP2 PUSH2 0x32C3 JUMP JUMPDEST SWAP1 POP SWAP2 SWAP1 POP JUMP JUMPDEST PUSH32 0x63657274696669636174652063616E2062652069737375656420746F20757365 PUSH1 0x0 DUP3 ADD MSTORE PUSH32 0x7273206F6E6C7900000000000000000000000000000000000000000000000000 PUSH1 0x20 DUP3 ADD MSTORE POP JUMP JUMPDEST PUSH1 0x0 PUSH2 0x3362 PUSH1 0x27 DUP4 PUSH2 0x2E67 JUMP JUMPDEST SWAP2 POP PUSH2 0x336D DUP3 PUSH2 0x3306 JUMP JUMPDEST PUSH1 0x40 DUP3 ADD SWAP1 POP SWAP2 SWAP1 POP JUMP JUMPDEST PUSH1 0x0 PUSH1 0x20 DUP3 ADD SWAP1 POP DUP2 DUP2 SUB PUSH1 0x0 DUP4 ADD MSTORE PUSH2 0x3391 DUP2 PUSH2 0x3355 JUMP JUMPDEST SWAP1 POP SWAP2 SWAP1 POP JUMP JUMPDEST PUSH32 0x636572746966696361746520776974682073616D65207575696420616C726561 PUSH1 0x0 DUP3 ADD MSTORE PUSH32 0x6479207265676973746572656400000000000000000000000000000000000000 PUSH1 0x20 DUP3 ADD MSTORE POP JUMP JUMPDEST PUSH1 0x0 PUSH2 0x33F4 PUSH1 0x2D DUP4 PUSH2 0x2E67 JUMP JUMPDEST SWAP2 POP PUSH2 0x33FF DUP3 PUSH2 0x3398 JUMP JUMPDEST PUSH1 0x40 DUP3 ADD SWAP1 POP SWAP2 SWAP1 POP JUMP JUMPDEST PUSH1 0x0 PUSH1 0x20 DUP3 ADD SWAP1 POP DUP2 DUP2 SUB PUSH1 0x0 DUP4 ADD MSTORE PUSH2 0x3423 DUP2 PUSH2 0x33E7 JUMP JUMPDEST SWAP1 POP SWAP2 SWAP1 POP JUMP JUMPDEST PUSH1 0x0 DUP2 SWAP1 POP DUP2 PUSH1 0x0 MSTORE PUSH1 0x20 PUSH1 0x0 KECCAK256 SWAP1 POP SWAP2 SWAP1 POP JUMP JUMPDEST PUSH1 0x0 PUSH1 0x20 PUSH1 0x1F DUP4 ADD DIV SWAP1 POP SWAP2 SWAP1 POP JUMP JUMPDEST PUSH1 0x0 DUP3 DUP3 SHL SWAP1 POP SWAP3 SWAP2 POP POP JUMP JUMPDEST PUSH1 0x0 PUSH1 0x8 DUP4 MUL PUSH2 0x348C PUSH32 0xFFFFFFFFFFFFFFFFFFFFFFFFFFFFFFFFFFFFFFFFFFFFFFFFFFFFFFFFFFFFFFFF DUP3 PUSH2 0x344F JUMP JUMPDEST PUSH2 0x3496 DUP7 DUP4 PUSH2 0x344F JUMP JUMPDEST SWAP6 POP DUP1 NOT DUP5 AND SWAP4 POP DUP1 DUP7 AND DUP5 OR SWAP3 POP POP POP SWAP4 SWAP3 POP POP POP JUMP JUMPDEST PUSH1 0x0 DUP2 SWAP1 POP SWAP2 SWAP1 POP JUMP JUMPDEST PUSH1 0x0 PUSH2 0x34D3 PUSH2 0x34CE PUSH2 0x34C9 DUP5 PUSH2 0x2C4B JUMP JUMPDEST PUSH2 0x34AE JUMP JUMPDEST PUSH2 0x2C4B JUMP JUMPDEST SWAP1 POP SWAP2 SWAP1 POP JUMP JUMPDEST PUSH1 0x0 DUP2 SWAP1 POP SWAP2 SWAP1 POP JUMP JUMPDEST PUSH2 0x34ED DUP4 PUSH2 0x34B8 JUMP JUMPDEST PUSH2 0x3501 PUSH2 0x34F9 DUP3 PUSH2 0x34DA JUMP JUMPDEST DUP5 DUP5 SLOAD PUSH2 0x345C JUMP JUMPDEST DUP3 SSTORE POP POP POP POP JUMP JUMPDEST PUSH1 0x0 SWAP1 JUMP JUMPDEST PUSH2 0x3516 PUSH2 0x3509 JUMP JUMPDEST PUSH2 0x3521 DUP2 DUP5 DUP5 PUSH2 0x34E4 JUMP JUMPDEST POP POP POP JUMP JUMPDEST JUMPDEST DUP2 DUP2 LT ISZERO PUSH2 0x3545 JUMPI PUSH2 0x353A PUSH1 0x0 DUP3 PUSH2 0x350E JUMP JUMPDEST PUSH1 0x1 DUP2 ADD SWAP1 POP PUSH2 0x3527 JUMP JUMPDEST POP POP JUMP JUMPDEST PUSH1 0x1F DUP3 GT ISZERO PUSH2 0x358A JUMPI PUSH2 0x355B DUP2 PUSH2 0x342A JUMP JUMPDEST PUSH2 0x3564 DUP5 PUSH2 0x343F JUMP JUMPDEST DUP2 ADD PUSH1 0x20 DUP6 LT ISZERO PUSH2 0x3573 JUMPI DUP2 SWAP1 POP JUMPDEST PUSH2 0x3587 PUSH2 0x357F DUP6 PUSH2 0x343F JUMP JUMPDEST DUP4 ADD DUP3 PUSH2 0x3526 JUMP JUMPDEST POP POP JUMPDEST POP POP POP JUMP JUMPDEST PUSH1 0x0 DUP3 DUP3 SHR SWAP1 POP SWAP3 SWAP2 POP POP JUMP JUMPDEST PUSH1 0x0 PUSH2 0x35AD PUSH1 0x0 NOT DUP5 PUSH1 0x8 MUL PUSH2 0x358F JUMP JUMPDEST NOT DUP1 DUP4 AND SWAP2 POP POP SWAP3 SWAP2 POP POP JUMP JUMPDEST PUSH1 0x0 PUSH2 0x35C6 DUP4 DUP4 PUSH2 0x359C JUMP JUMPDEST SWAP2 POP DUP3 PUSH1 0x2 MUL DUP3 OR SWAP1 POP SWAP3 SWAP2 POP POP JUMP JUMPDEST PUSH2 0x35DF DUP3 PUSH2 0x2CF4 JUMP JUMPDEST PUSH8 0xFFFFFFFFFFFFFFFF DUP2 GT ISZERO PUSH2 0x35F8 JUMPI PUSH2 0x35F7 PUSH2 0x29ED JUMP JUMPDEST JUMPDEST PUSH2 0x3602 DUP3 SLOAD PUSH2 0x30D9 JUMP JUMPDEST PUSH2 0x360D DUP3 DUP3 DUP6 PUSH2 0x3549 JUMP JUMPDEST PUSH1 0x0 PUSH1 0x20 SWAP1 POP PUSH1 0x1F DUP4 GT PUSH1 0x1 DUP2 EQ PUSH2 0x3640 JUMPI PUSH1 0x0 DUP5 ISZERO PUSH2 0x362E JUMPI DUP3 DUP8 ADD MLOAD SWAP1 POP JUMPDEST PUSH2 0x3638 DUP6 DUP3 PUSH2 0x35BA JUMP JUMPDEST DUP7 SSTORE POP PUSH2 0x36A0 JUMP JUMPDEST PUSH1 0x1F NOT DUP5 AND PUSH2 0x364E DUP7 PUSH2 0x342A JUMP JUMPDEST PUSH1 0x0 JUMPDEST DUP3 DUP2 LT ISZERO PUSH2 0x3676 JUMPI DUP5 DUP10 ADD MLOAD DUP3 SSTORE PUSH1 0x1 DUP3 ADD SWAP2 POP PUSH1 0x20 DUP6 ADD SWAP5 POP PUSH1 0x20 DUP2 ADD SWAP1 POP PUSH2 0x3651 JUMP JUMPDEST DUP7 DUP4 LT ISZERO PUSH2 0x3693 JUMPI DUP5 DUP10 ADD MLOAD PUSH2 0x368F PUSH1 0x1F DUP10 AND DUP3 PUSH2 0x359C JUMP JUMPDEST DUP4 SSTORE POP JUMPDEST PUSH1 0x1 PUSH1 0x2 DUP9 MUL ADD DUP9 SSTORE POP POP POP JUMPDEST POP POP POP POP POP POP JUMP JUMPDEST PUSH32 0x69737375657220616C7265616479207265676973746572656400000000000000 PUSH1 0x0 DUP3 ADD MSTORE POP JUMP JUMPDEST PUSH1 0x0 PUSH2 0x36DE PUSH1 0x19 DUP4 PUSH2 0x2E67 JUMP JUMPDEST SWAP2 POP PUSH2 0x36E9 DUP3 PUSH2 0x36A8 JUMP JUMPDEST PUSH1 0x20 DUP3 ADD SWAP1 POP SWAP2 SWAP1 POP JUMP JUMPDEST PUSH1 0x0 PUSH1 0x20 DUP3 ADD SWAP1 POP DUP2 DUP2 SUB PUSH1 0x0 DUP4 ADD MSTORE PUSH2 0x370D DUP2 PUSH2 0x36D1 JUMP JUMPDEST SWAP1 POP SWAP2 SWAP1 POP JUMP JUMPDEST PUSH32 0x616C726561647920726567697374657265642061732075736572000000000000 PUSH1 0x0 DUP3 ADD MSTORE POP JUMP JUMPDEST PUSH1 0x0 PUSH2 0x374A PUSH1 0x1A DUP4 PUSH2 0x2E67 JUMP JUMPDEST SWAP2 POP PUSH2 0x3755 DUP3 PUSH2 0x3714 JUMP JUMPDEST PUSH1 0x20 DUP3 ADD SWAP1 POP SWAP2 SWAP1 POP JUMP JUMPDEST PUSH1 0x0 PUSH1 0x20 DUP3 ADD SWAP1 POP DUP2 DUP2 SUB PUSH1 0x0 DUP4 ADD MSTORE PUSH2 0x3779 DUP2 PUSH2 0x373D JUMP JUMPDEST SWAP1 POP SWAP2 SWAP1 POP JUMP JUMPDEST PUSH32 0x7573657220616C72656164792072656769737465726564000000000000000000 PUSH1 0x0 DUP3 ADD MSTORE POP JUMP JUMPDEST PUSH1 0x0 PUSH2 0x37B6 PUSH1 0x17 DUP4 PUSH2 0x2E67 JUMP JUMPDEST SWAP2 POP PUSH2 0x37C1 DUP3 PUSH2 0x3780 JUMP JUMPDEST PUSH1 0x20 DUP3 ADD SWAP1 POP SWAP2 SWAP1 POP JUMP JUMPDEST PUSH1 0x0 PUSH1 0x20 DUP3 ADD SWAP1 POP DUP2 DUP2 SUB PUSH1 0x0 DUP4 ADD MSTORE PUSH2 0x37E5 DUP2 PUSH2 0x37A9 JUMP JUMPDEST SWAP1 POP SWAP2 SWAP1 POP JUMP JUMPDEST PUSH32 0x616C726561647920726567697374657265642061732069737375657200000000 PUSH1 0x0 DUP3 ADD MSTORE POP JUMP JUMPDEST PUSH1 0x0 PUSH2 0x3822 PUSH1 0x1C DUP4 PUSH2 0x2E67 JUMP JUMPDEST SWAP2 POP PUSH2 0x382D DUP3 PUSH2 0x37EC JUMP JUMPDEST PUSH1 0x20 DUP3 ADD SWAP1 POP SWAP2 SWAP1 POP JUMP JUMPDEST PUSH1 0x0 PUSH1 0x20 DUP3 ADD SWAP1 POP DUP2 DUP2 SUB PUSH1 0x0 DUP4 ADD MSTORE PUSH2 0x3851 DUP2 PUSH2 0x3815 JUMP JUMPDEST SWAP1 POP SWAP2 SWAP1 POP JUMP JUMPDEST PUSH32 0x4E487B7100000000000000000000000000000000000000000000000000000000 PUSH1 0x0 MSTORE PUSH1 0x32 PUSH1 0x4 MSTORE PUSH1 0x24 PUSH1 0x0 REVERT JUMPDEST PUSH1 0x0 DUP2 SLOAD PUSH2 0x3894 DUP2 PUSH2 0x30D9 JUMP JUMPDEST PUSH2 0x389E DUP2 DUP7 PUSH2 0x3057 JUMP JUMPDEST SWAP5 POP PUSH1 0x1 DUP3 AND PUSH1 0x0 DUP2 EQ PUSH2 0x38B9 JUMPI PUSH1 0x1 DUP2 EQ PUSH2 0x38CE JUMPI PUSH2 0x3901 JUMP JUMPDEST PUSH1 0xFF NOT DUP4 AND DUP7 MSTORE DUP2 ISZERO ISZERO DUP3 MUL DUP7 ADD SWAP4 POP PUSH2 0x3901 JUMP JUMPDEST PUSH2 0x38D7 DUP6 PUSH2 0x342A JUMP JUMPDEST PUSH1 0x0 JUMPDEST DUP4 DUP2 LT ISZERO PUSH2 0x38F9 JUMPI DUP2 SLOAD DUP2 DUP10 ADD MSTORE PUSH1 0x1 DUP3 ADD SWAP2 POP PUSH1 0x20 DUP2 ADD SWAP1 POP PUSH2 0x38DA JUMP JUMPDEST DUP4 DUP9 ADD SWAP6 POP POP POP JUMPDEST POP POP POP SWAP3 SWAP2 POP POP JUMP JUMPDEST PUSH1 0x0 PUSH2 0x3916 DUP3 DUP5 PUSH2 0x3887 JUMP JUMPDEST SWAP2 POP DUP2 SWAP1 POP SWAP3 SWAP2 POP POP JUMP JUMPDEST PUSH32 0x4E487B7100000000000000000000000000000000000000000000000000000000 PUSH1 0x0 MSTORE PUSH1 0x11 PUSH1 0x4 MSTORE PUSH1 0x24 PUSH1 0x0 REVERT JUMPDEST PUSH1 0x0 PUSH2 0x395B DUP3 PUSH2 0x2C4B JUMP JUMPDEST SWAP2 POP PUSH32 0xFFFFFFFFFFFFFFFFFFFFFFFFFFFFFFFFFFFFFFFFFFFFFFFFFFFFFFFFFFFFFFFF DUP3 SUB PUSH2 0x398D JUMPI PUSH2 0x398C PUSH2 0x3921 JUMP JUMPDEST JUMPDEST PUSH1 0x1 DUP3 ADD SWAP1 POP SWAP2 SWAP1 POP JUMP INVALID LOG2 PUSH5 0x6970667358 0x22 SLT KECCAK256 0xCA RETURN 0xF DUP8 MSIZE SWAP8 0xCE CALLER 0xD0 0x28 0xCC 0xEC 0xF6 SWAP13 PUSH22 0xFCA265D7B18987F7705A2D7E8EC682ABA964736F6C63 NUMBER STOP ADDMOD GT STOP CALLER "},"methodIdentifiers":{"getCertificate(string)":"ed0f2e75","getCertificatesIssuedBy()":"455a04ab","getCertificatesIssuedFor()":"cfa026da","getIssuedByCount()":"0a660bc0","getIssuedForCount()":"0ae380ed","getProfile()":"d6afc9b1","getProfileByAddress(address)":"4cd6959c","invalidateCertificate(string)":"24f349f9","isIssuer()":"86af78fa","isRegistered()":"22366844","isUser()":"4c22c119","issueCertificate(string,address,string,string,string)":"5b1146bd","registerIssuer(string)":"6f4581dc","registerUser(string)":"704f1b94","verifyCertificate(string,address,address,string)":"06982546"}}}}}